{
  "transactions": [
    {
      "hash": "0xa7f1efca2b4617556c0c0b1546d4f89c5f697a68729ba129f5980f525f53f81a",
      "transactionType": "CALL",
      "contractName": null,
      "contractAddress": "0xe7f1725e7734ce288f8367e1bb143e90bb3f0512",
      "function": "createPair(address,address)",
      "arguments": [
        "0xCf7Ed3AccA5a467e9e704C703E8D87F634fB0Fc9",
        "0xDc64a140Aa3E981100a9becA4E685f962f0cF6C9"
      ],
      "transaction": {
        "from": "0xf39fd6e51aad88f6f4ce6ab8827279cfffb92266",
        "to": "0xe7f1725e7734ce288f8367e1bb143e90bb3f0512",
        "gas": "0x22673b",
        "value": "0x0",
        "input": "0xc9c65396000000000000000000000000cf7ed3acca5a467e9e704c703e8d87f634fb0fc9000000000000000000000000dc64a140aa3e981100a9beca4e685f962f0cf6c9",
        "nonce": "0x6",
        "chainId": "0x7a69"
      },
      "additionalContracts": [
        {
          "transactionType": "CREATE2",
          "address": "0x4d3eb92042e785b05ee74840c6875cff529ccaf6",
          "initCode": "0x60806040523461036e57604080519081016001600160401b03811182821017610284576040908152600c82526b053696d706c65444558204c560a41b602083015280519081016001600160401b038111828210176102845760405260038152620534c560ec1b602082015281516001600160401b038111610284575f54600181811c91168015610364575b602082101461026657601f8111610302575b50602092601f82116001146102a357928192935f92610298575b50508160011b915f199060031b1c1916175f555b80516001600160401b03811161028457600154600181811c9116801561027a575b602082101461026657601f8111610203575b50602091601f82116001146101a3579181925f92610198575b50508160011b915f199060031b1c1916176001555b601260ff1960025416176002555f600355335f5260046020525f60408120556040515f81525f7fddf252ad1be2c89b69c2b068fc378daa952ba7f163c4a11628f55a4df523b3ef60203393a3600880546001600160a01b0319163317905560405161186790816103738239f35b015190505f80610116565b601f1982169260015f52805f20915f5b8581106101eb575083600195106101d3575b505050811b0160015561012b565b01515f1960f88460031b161c191690555f80806101c5565b919260206001819286850151815501940192016101b3565b60015f527fb10e2d527612073b26eecdfd717e6a320cf44b4afac2b0732d9fcbe2b7fa0cf6601f830160051c8101916020841061025c575b601f0160051c01905b81811061025157506100fd565b5f8155600101610244565b909150819061023b565b634e487b7160e01b5f52602260045260245ffd5b90607f16906100eb565b634e487b7160e01b5f52604160045260245ffd5b015190505f806100b6565b601f198216935f8052805f20915f5b8681106102ea57508360019596106102d2575b505050811b015f556100ca565b01515f1960f88460031b161c191690555f80806102c5565b919260206001819286850151815501940192016102b2565b5f80527f290decd9548b62a8d60345a988386fc84ba6bc95484008f6362f93160ef3e563601f830160051c8101916020841061035a575b601f0160051c01905b81811061034f575061009c565b5f8155600101610342565b9091508190610339565b90607f169061008a565b5f80fdfe60806040526004361015610011575f80fd5b5f3560e01c806306fdde031461135e5780630902f1ac14611330578063095ea7b3146112b75780630dfe16811461128f57806318160ddd1461127257806323b872dd14611149578063313ce5671461112957806340c10f1914611104578063443cb4bc146110e7578063485cc955146110495780635909c0d51461102c5780635a3d54931461100f5780635a76f25e14610ff25780636a62784214610d255780636d9a640a1461093c57806370a08231146109045780637464fc3d146108e757806389afcb44146105af57806395d89b41146104ab578063a9059cbb14610417578063bc25cf77146102fc578063c45a0155146102d4578063c5700a02146102b7578063d21220a71461028f578063dd62ed3e1461023f5763fff6cae914610137575f80fd5b346101f5575f3660031901126101f5576006546040516370a0823160e01b815230600482015290602090829060249082906001600160a01b03165afa8015610201575f9061020c575b6007546040516370a0823160e01b81523060048201529250602090839060249082906001600160a01b03165afa908115610201575f916101c7575b6101c59250611584565b005b90506020823d6020116101f9575b816101e260209383611416565b810103126101f5576101c59151906101bb565b5f80fd5b3d91506101d5565b6040513d5f823e3d90fd5b506020813d602011610237575b8161022660209383611416565b810103126101f55760249051610180565b3d9150610219565b346101f55760403660031901126101f557610258611476565b61026061148c565b6001600160a01b039182165f908152600560209081526040808320949093168252928352819020549051908152f35b346101f5575f3660031901126101f5576007546040516001600160a01b039091168152602090f35b346101f5575f3660031901126101f5576020600b54604051908152f35b346101f5575f3660031901126101f5576008546040516001600160a01b039091168152602090f35b346101f55760203660031901126101f557610315611476565b6006546007546040516370a0823160e01b81523060048201526001600160a01b0391821692909116602082602481845afa9182156102015784905f936103df575b5061036761036d93600954906114ee565b91611711565b6040516370a0823160e01b815230600482015291602083602481855afa928315610201575f936103a9575b506103676101c593600a54906114ee565b92506020833d6020116103d7575b816103c460209383611416565b810103126101f557915191610367610398565b3d91506103b7565b9250506020823d60201161040f575b816103fb60209383611416565b810103126101f55790519083610367610356565b3d91506103ee565b346101f55760403660031901126101f557610430611476565b60243590335f52600460205261044c8260405f205410156114a2565b335f52600460205260405f206104638382546114ee565b905560018060a01b031690815f52600460205260405f206104858282546114fb565b90556040519081525f5160206118125f395f51905f5260203392a3602060405160018152f35b346101f5575f3660031901126101f5576040515f6001548060011c906001811680156105a5575b6020831081146105915782855290811561056d575060011461050f575b61050b836104ff81850382611416565b6040519182918261144c565b0390f35b60015f9081527fb10e2d527612073b26eecdfd717e6a320cf44b4afac2b0732d9fcbe2b7fa0cf6939250905b808210610553575090915081016020016104ff6104ef565b91926001816020925483858801015201910190929161053b565b60ff191660208086019190915291151560051b840190910191506104ff90506104ef565b634e487b7160e01b5f52602260045260245ffd5b91607f16916104d2565b346101f55760203660031901126101f55760246105ca611476565b6006546040516370a0823160e01b81523060048201529260209184919082906001600160a01b03165afa918215610201575f926108b2575b506007546040516370a0823160e01b81523060048201529190602090839060249082906001600160a01b03165afa918215610201575f9261087e575b50305f52600460205261067161066561066561066a60405f20549660035493849189611553565b611566565b9486611553565b9082151580610875575b15610824575f60249430825260046020526040822061069b8282546114ee565b90556106a9816003546114ee565b6003556040519081525f5160206118125f395f51905f5260203092a36006546106de90849083906001600160a01b0316611711565b6007546106f790839083906001600160a01b0316611711565b6006546040516370a0823160e01b81523060048201529460209186919082906001600160a01b03165afa938415610201575f946107f0575b506007546040516370a0823160e01b815230600482015290602090829060249082906001600160a01b03165afa908115610201575f916107bd575b5061077790604095611584565b83519083825282602083015260018060a01b0316907fdccd412f0b1252819cb1fd330b93224ca42612892bb3f4f789976e6d81936496853392a382519182526020820152f35b90506020813d6020116107e8575b816107d860209383611416565b810103126101f55751604061076a565b3d91506107cb565b9093506020813d60201161081c575b8161080c60209383611416565b810103126101f55751928461072f565b3d91506107ff565b60405162461bcd60e51b815260206004820152602360248201527f506169723a20494e53554646494349454e545f4c49515549444954595f42555260448201526213915160ea1b6064820152608490fd5b5081151561067b565b9091506020813d6020116108aa575b8161089a60209383611416565b810103126101f55751908361063e565b3d915061088d565b9091506020813d6020116108df575b816108ce60209383611416565b810103126101f55751906024610602565b3d91506108c1565b346101f5575f3660031901126101f5576020600e54604051908152f35b346101f55760203660031901126101f5576001600160a01b03610925611476565b165f526004602052602060405f2054604051908152f35b346101f55760603660031901126101f5576044356001600160a01b038116906024356004358383036101f55780159283158094610d1c575b15610cd857600954821080610ccd575b15610c8857602493610c6a575b8280610c4d575b50506006546040516370a0823160e01b81523060048201529360209185919082906001600160a01b03165afa8015610201575f90610c1a575b6007546040516370a0823160e01b81523060048201529450602090859060249082906001600160a01b03165afa938415610201575f94610be6575b5060095490610a1b83836114ee565b811115610bdf57610a35610a2f84846114ee565b826114ee565b945b600a5492610a4586856114ee565b821115610bd857610a5f610a5987866114ee565b836114ee565b935b8715801581610bcf575b15610b8a576103e88502908582046103e81486151715610b765760038a02908a82046003141715610b7657610a9f916114ee565b906103e88402918483046103e81485151715610b7657600387029087820460031488151715610b7657610ad8610ade92610ae4956114ee565b90611553565b92611553565b90620f4240820291808304620f42401490151715610b765710610b4757610b0a91611584565b6040519384526020840152604083015260608201527fd78ad95fa46c994b6551d0da85fc275fe613ce37657fb8d5e3d130840159d82260803392a3005b60405162461bcd60e51b8152602060048201526007602482015266506169723a204b60c81b6044820152606490fd5b634e487b7160e01b5f52601160045260245ffd5b60405162461bcd60e51b815260206004820152601f60248201527f506169723a20494e53554646494349454e545f494e5055545f414d4f554e54006044820152606490fd5b50851515610a6b565b5f93610a61565b5f94610a37565b9093506020813d602011610c12575b81610c0260209383611416565b810103126101f557519285610a0c565b3d9150610bf5565b506020833d602011610c45575b81610c3460209383611416565b810103126101f557602492516109d1565b3d9150610c27565b600754610c6392906001600160a01b0316611711565b8482610998565b600654610c8390839083906001600160a01b0316611711565b610991565b60405162461bcd60e51b815260206004820152601c60248201527f506169723a20494e53554646494349454e545f4c4951554944495459000000006044820152606490fd5b50600a548310610984565b606460405162461bcd60e51b815260206004820152602060248201527f506169723a20494e53554646494349454e545f4f55545055545f414d4f554e546044820152fd5b50821515610974565b346101f55760203660031901126101f5576024610d40611476565b6006546040516370a0823160e01b81523060048201529260209184919082906001600160a01b03165afa918215610201575f92610fbd575b506007546040516370a0823160e01b81523060048201529190602090839060249082906001600160a01b03165afa918215610201575f92610f89575b50600954610dc281856114ee565b91600a54610dd081866114ee565b926003549182155f14610f5757505050610dea8284611553565b5f6003821115610f495750808060011c60018101809111610b7657905b828210610f2a5750505b6103e7198101908111610b7657936003546103e88101809111610b76576003555f805260046020527f17ef568e3e12ab5b9c7254a8d58478811de00f9e6eb34345acd53bf8fd09d3ec80546103e8810191908210610b7657555f805f5160206118125f395f51905f5260206040516103e88152a35b8415610ed957602095610e9c86610ea194611508565b611584565b604051918252838201527f4c209b5fc8ad50758f13e2e1088ba56a560dff690a1c6fef26394f4c03821c4f60403392a2604051908152f35b60405162461bcd60e51b815260206004820152602360248201527f506169723a20494e53554646494349454e545f4c49515549444954595f4d494e60448201526215115160ea1b6064820152608490fd5b909150610f4082610f3b8184611566565b6114fb565b60011c90610e07565b9015610e1157506001610e11565b610665610f6b610f7293610665868a611553565b9386611553565b80821015610f8257505b93610e86565b9050610f7c565b9091506020813d602011610fb5575b81610fa560209383611416565b810103126101f557519083610db4565b3d9150610f98565b9091506020813d602011610fea575b81610fd960209383611416565b810103126101f55751906024610d78565b3d9150610fcc565b346101f5575f3660031901126101f5576020600a54604051908152f35b346101f5575f3660031901126101f5576020600d54604051908152f35b346101f5575f3660031901126101f5576020600c54604051908152f35b346101f55760403660031901126101f557611062611476565b61106a61148c565b6008549091906001600160a01b031633036110b057600680546001600160a01b039283166001600160a01b03199182161790915560078054939092169216919091179055005b60405162461bcd60e51b815260206004820152600f60248201526e2830b4b91d102327a92124a22222a760891b6044820152606490fd5b346101f5575f3660031901126101f5576020600954604051908152f35b346101f55760403660031901126101f5576101c5611120611476565b60243590611508565b346101f5575f3660031901126101f557602060ff60025416604051908152f35b346101f55760603660031901126101f557611162611476565b61116a61148c565b6044359160018060a01b031690815f52600460205261118f8360405f205410156114a2565b5f828152600560209081526040808320338452909152902054831161122d5760205f5160206118125f395f51905f5291835f526004825260405f206111d58682546114ee565b905560018060a01b031693845f526004825260405f206111f68282546114fb565b90555f8481526005835260408082203383528452902080546112199083906114ee565b9055604051908152a3602060405160018152f35b60405162461bcd60e51b815260206004820152601d60248201527f45524332303a20696e73756666696369656e7420616c6c6f77616e63650000006044820152606490fd5b346101f5575f3660031901126101f5576020600354604051908152f35b346101f5575f3660031901126101f5576006546040516001600160a01b039091168152602090f35b346101f55760403660031901126101f5576112d0611476565b335f8181526005602090815260408083206001600160a01b03909516808452948252918290206024359081905591519182527f8c5be1e5ebec7d5bd14f71427d1e84f3dd0314c0f7b2291e5b200ac8c7c3b92591a3602060405160018152f35b346101f5575f3660031901126101f5576060600954600a54600b549060405192835260208301526040820152f35b346101f5575f3660031901126101f5576040515f5f548060011c9060018116801561140c575b6020831081146105915782855290811561056d57506001146113b05761050b836104ff81850382611416565b5f8080527f290decd9548b62a8d60345a988386fc84ba6bc95484008f6362f93160ef3e563939250905b8082106113f2575090915081016020016104ff6104ef565b9192600181602092548385880101520191019092916113da565b91607f1691611384565b90601f8019910116810190811067ffffffffffffffff82111761143857604052565b634e487b7160e01b5f52604160045260245ffd5b602060409281835280519182918282860152018484015e5f828201840152601f01601f1916010190565b600435906001600160a01b03821682036101f557565b602435906001600160a01b03821682036101f557565b156114a957565b60405162461bcd60e51b815260206004820152601b60248201527f45524332303a20696e73756666696369656e742062616c616e636500000000006044820152606490fd5b91908203918211610b7657565b91908201809211610b7657565b5f5160206118125f395f51905f5260205f92611526856003546114fb565b60035560018060a01b03169384845260048252604084206115488282546114fb565b9055604051908152a3565b81810292918115918404141715610b7657565b8115611570570490565b634e487b7160e01b5f52601260045260245ffd5b6001600160701b0381111580611700575b156116ca5763ffffffff4216916115ae600b54846114ee565b801515806116bf575b806116b4575b611601575b50906040917fcf2aa50876cdfbb541206f89af0ee78d44a2abf8d328e37fa4917f982149848a938260095581600a55600b5582519182526020820152a1565b9190600a5493670de0b6b3a76400008502858104670de0b6b3a76400001486151715610b76576116486116408661163b6009548095611566565b611553565b600c546114fb565b600c55670de0b6b3a7640000810290808204670de0b6b3a76400001490151715610b76576116a060409561163b7fcf2aa50876cdfbb541206f89af0ee78d44a2abf8d328e37fa4917f982149848a986116a894611566565b600d546114fb565b600d55935090916115c2565b50600a5415156115bd565b5060095415156115b7565b60405162461bcd60e51b815260206004820152600e60248201526d506169723a204f564552464c4f5760901b6044820152606490fd5b506001600160701b03821115611595565b5f929183809360405190602082019363a9059cbb60e01b855260018060a01b0316602483015260448201526044815261174b606482611416565b51925af13d1561180a573d67ffffffffffffffff8111611438576040519061177d601f8201601f191660200183611416565b81523d5f602083013e5b816117d2575b501561179557565b60405162461bcd60e51b815260206004820152601560248201527414185a5c8e881514905394d1915497d19052531151605a1b6044820152606490fd5b80518015925082156117e7575b50505f61178d565b81925090602091810103126101f5576020015180151581036101f5575f806117df565b606061178756feddf252ad1be2c89b69c2b068fc378daa952ba7f163c4a11628f55a4df523b3efa264697066735822122081eeb91883f22a387d84f5fa7a31e05866a12db316e58b1f0b9527df649dcb3564736f6c634300081b0033"
        }
      ],
      "isFixedGasLimit": false
    },
    {
      "hash": "0x46a1dcd4dde945e2393d14e81a7c65f52a844c647c1d86f747b405c30aee9dfd",
      "transactionType": "CALL",
      "contractName": null,
      "contractAddress": "0xe7f1725e7734ce288f8367e1bb143e90bb3f0512",
      "function": "createPair(address,address)",
      "arguments": [
        "0xDc64a140Aa3E981100a9becA4E685f962f0cF6C9",
        "0x5FC8d32690cc91D4c39d9d3abcBD16989F875707"
      ],
      "transaction": {
        "from": "0xf39fd6e51aad88f6f4ce6ab8827279cfffb92266",
        "to": "0xe7f1725e7734ce288f8367e1bb143e90bb3f0512",
        "gas": "0x2021b9",
        "value": "0x0",
        "input": "0xc9c65396000000000000000000000000dc64a140aa3e981100a9beca4e685f962f0cf6c90000000000000000000000005fc8d32690cc91d4c39d9d3abcbd16989f875707",
        "nonce": "0x7",
        "chainId": "0x7a69"
      },
      "additionalContracts": [
        {
          "transactionType": "CREATE2",
          "address": "0xd5faf37e0592c245215f070b3f5c2cccb202bdae",
          "initCode": "0x60806040523461036e57604080519081016001600160401b03811182821017610284576040908152600c82526b053696d706c65444558204c560a41b602083015280519081016001600160401b038111828210176102845760405260038152620534c560ec1b602082015281516001600160401b038111610284575f54600181811c91168015610364575b602082101461026657601f8111610302575b50602092601f82116001146102a357928192935f92610298575b50508160011b915f199060031b1c1916175f555b80516001600160401b03811161028457600154600181811c9116801561027a575b602082101461026657601f8111610203575b50602091601f82116001146101a3579181925f92610198575b50508160011b915f199060031b1c1916176001555b601260ff1960025416176002555f600355335f5260046020525f60408120556040515f81525f7fddf252ad1be2c89b69c2b068fc378daa952ba7f163c4a11628f55a4df523b3ef60203393a3600880546001600160a01b0319163317905560405161186790816103738239f35b015190505f80610116565b601f1982169260015f52805f20915f5b8581106101eb575083600195106101d3575b505050811b0160015561012b565b01515f1960f88460031b161c191690555f80806101c5565b919260206001819286850151815501940192016101b3565b60015f527fb10e2d527612073b26eecdfd717e6a320cf44b4afac2b0732d9fcbe2b7fa0cf6601f830160051c8101916020841061025c575b601f0160051c01905b81811061025157506100fd565b5f8155600101610244565b909150819061023b565b634e487b7160e01b5f52602260045260245ffd5b90607f16906100eb565b634e487b7160e01b5f52604160045260245ffd5b015190505f806100b6565b601f198216935f8052805f20915f5b8681106102ea57508360019596106102d2575b505050811b015f556100ca565b01515f1960f88460031b161c191690555f80806102c5565b919260206001819286850151815501940192016102b2565b5f80527f290decd9548b62a8d60345a988386fc84ba6bc95484008f6362f93160ef3e563601f830160051c8101916020841061035a575b601f0160051c01905b81811061034f575061009c565b5f8155600101610342565b9091508190610339565b90607f169061008a565b5f80fdfe60806040526004361015610011575f80fd5b5f3560e01c806306fdde031461135e5780630902f1ac14611330578063095ea7b3146112b75780630dfe16811461128f57806318160ddd1461127257806323b872dd14611149578063313ce5671461112957806340c10f1914611104578063443cb4bc146110e7578063485cc955146110495780635909c0d51461102c5780635a3d54931461100f5780635a76f25e14610ff25780636a62784214610d255780636d9a640a1461093c57806370a08231146109045780637464fc3d146108e757806389afcb44146105af57806395d89b41146104ab578063a9059cbb14610417578063bc25cf77146102fc578063c45a0155146102d4578063c5700a02146102b7578063d21220a71461028f578063dd62ed3e1461023f5763fff6cae914610137575f80fd5b346101f5575f3660031901126101f5576006546040516370a0823160e01b815230600482015290602090829060249082906001600160a01b03165afa8015610201575f9061020c575b6007546040516370a0823160e01b81523060048201529250602090839060249082906001600160a01b03165afa908115610201575f916101c7575b6101c59250611584565b005b90506020823d6020116101f9575b816101e260209383611416565b810103126101f5576101c59151906101bb565b5f80fd5b3d91506101d5565b6040513d5f823e3d90fd5b506020813d602011610237575b8161022660209383611416565b810103126101f55760249051610180565b3d9150610219565b346101f55760403660031901126101f557610258611476565b61026061148c565b6001600160a01b039182165f908152600560209081526040808320949093168252928352819020549051908152f35b346101f5575f3660031901126101f5576007546040516001600160a01b039091168152602090f35b346101f5575f3660031901126101f5576020600b54604051908152f35b346101f5575f3660031901126101f5576008546040516001600160a01b039091168152602090f35b346101f55760203660031901126101f557610315611476565b6006546007546040516370a0823160e01b81523060048201526001600160a01b0391821692909116602082602481845afa9182156102015784905f936103df575b5061036761036d93600954906114ee565b91611711565b6040516370a0823160e01b815230600482015291602083602481855afa928315610201575f936103a9575b506103676101c593600a54906114ee565b92506020833d6020116103d7575b816103c460209383611416565b810103126101f557915191610367610398565b3d91506103b7565b9250506020823d60201161040f575b816103fb60209383611416565b810103126101f55790519083610367610356565b3d91506103ee565b346101f55760403660031901126101f557610430611476565b60243590335f52600460205261044c8260405f205410156114a2565b335f52600460205260405f206104638382546114ee565b905560018060a01b031690815f52600460205260405f206104858282546114fb565b90556040519081525f5160206118125f395f51905f5260203392a3602060405160018152f35b346101f5575f3660031901126101f5576040515f6001548060011c906001811680156105a5575b6020831081146105915782855290811561056d575060011461050f575b61050b836104ff81850382611416565b6040519182918261144c565b0390f35b60015f9081527fb10e2d527612073b26eecdfd717e6a320cf44b4afac2b0732d9fcbe2b7fa0cf6939250905b808210610553575090915081016020016104ff6104ef565b91926001816020925483858801015201910190929161053b565b60ff191660208086019190915291151560051b840190910191506104ff90506104ef565b634e487b7160e01b5f52602260045260245ffd5b91607f16916104d2565b346101f55760203660031901126101f55760246105ca611476565b6006546040516370a0823160e01b81523060048201529260209184919082906001600160a01b03165afa918215610201575f926108b2575b506007546040516370a0823160e01b81523060048201529190602090839060249082906001600160a01b03165afa918215610201575f9261087e575b50305f52600460205261067161066561066561066a60405f20549660035493849189611553565b611566565b9486611553565b9082151580610875575b15610824575f60249430825260046020526040822061069b8282546114ee565b90556106a9816003546114ee565b6003556040519081525f5160206118125f395f51905f5260203092a36006546106de90849083906001600160a01b0316611711565b6007546106f790839083906001600160a01b0316611711565b6006546040516370a0823160e01b81523060048201529460209186919082906001600160a01b03165afa938415610201575f946107f0575b506007546040516370a0823160e01b815230600482015290602090829060249082906001600160a01b03165afa908115610201575f916107bd575b5061077790604095611584565b83519083825282602083015260018060a01b0316907fdccd412f0b1252819cb1fd330b93224ca42612892bb3f4f789976e6d81936496853392a382519182526020820152f35b90506020813d6020116107e8575b816107d860209383611416565b810103126101f55751604061076a565b3d91506107cb565b9093506020813d60201161081c575b8161080c60209383611416565b810103126101f55751928461072f565b3d91506107ff565b60405162461bcd60e51b815260206004820152602360248201527f506169723a20494e53554646494349454e545f4c49515549444954595f42555260448201526213915160ea1b6064820152608490fd5b5081151561067b565b9091506020813d6020116108aa575b8161089a60209383611416565b810103126101f55751908361063e565b3d915061088d565b9091506020813d6020116108df575b816108ce60209383611416565b810103126101f55751906024610602565b3d91506108c1565b346101f5575f3660031901126101f5576020600e54604051908152f35b346101f55760203660031901126101f5576001600160a01b03610925611476565b165f526004602052602060405f2054604051908152f35b346101f55760603660031901126101f5576044356001600160a01b038116906024356004358383036101f55780159283158094610d1c575b15610cd857600954821080610ccd575b15610c8857602493610c6a575b8280610c4d575b50506006546040516370a0823160e01b81523060048201529360209185919082906001600160a01b03165afa8015610201575f90610c1a575b6007546040516370a0823160e01b81523060048201529450602090859060249082906001600160a01b03165afa938415610201575f94610be6575b5060095490610a1b83836114ee565b811115610bdf57610a35610a2f84846114ee565b826114ee565b945b600a5492610a4586856114ee565b821115610bd857610a5f610a5987866114ee565b836114ee565b935b8715801581610bcf575b15610b8a576103e88502908582046103e81486151715610b765760038a02908a82046003141715610b7657610a9f916114ee565b906103e88402918483046103e81485151715610b7657600387029087820460031488151715610b7657610ad8610ade92610ae4956114ee565b90611553565b92611553565b90620f4240820291808304620f42401490151715610b765710610b4757610b0a91611584565b6040519384526020840152604083015260608201527fd78ad95fa46c994b6551d0da85fc275fe613ce37657fb8d5e3d130840159d82260803392a3005b60405162461bcd60e51b8152602060048201526007602482015266506169723a204b60c81b6044820152606490fd5b634e487b7160e01b5f52601160045260245ffd5b60405162461bcd60e51b815260206004820152601f60248201527f506169723a20494e53554646494349454e545f494e5055545f414d4f554e54006044820152606490fd5b50851515610a6b565b5f93610a61565b5f94610a37565b9093506020813d602011610c12575b81610c0260209383611416565b810103126101f557519285610a0c565b3d9150610bf5565b506020833d602011610c45575b81610c3460209383611416565b810103126101f557602492516109d1565b3d9150610c27565b600754610c6392906001600160a01b0316611711565b8482610998565b600654610c8390839083906001600160a01b0316611711565b610991565b60405162461bcd60e51b815260206004820152601c60248201527f506169723a20494e53554646494349454e545f4c4951554944495459000000006044820152606490fd5b50600a548310610984565b606460405162461bcd60e51b815260206004820152602060248201527f506169723a20494e53554646494349454e545f4f55545055545f414d4f554e546044820152fd5b50821515610974565b346101f55760203660031901126101f5576024610d40611476565b6006546040516370a0823160e01b81523060048201529260209184919082906001600160a01b03165afa918215610201575f92610fbd575b506007546040516370a0823160e01b81523060048201529190602090839060249082906001600160a01b03165afa918215610201575f92610f89575b50600954610dc281856114ee565b91600a54610dd081866114ee565b926003549182155f14610f5757505050610dea8284611553565b5f6003821115610f495750808060011c60018101809111610b7657905b828210610f2a5750505b6103e7198101908111610b7657936003546103e88101809111610b76576003555f805260046020527f17ef568e3e12ab5b9c7254a8d58478811de00f9e6eb34345acd53bf8fd09d3ec80546103e8810191908210610b7657555f805f5160206118125f395f51905f5260206040516103e88152a35b8415610ed957602095610e9c86610ea194611508565b611584565b604051918252838201527f4c209b5fc8ad50758f13e2e1088ba56a560dff690a1c6fef26394f4c03821c4f60403392a2604051908152f35b60405162461bcd60e51b815260206004820152602360248201527f506169723a20494e53554646494349454e545f4c49515549444954595f4d494e60448201526215115160ea1b6064820152608490fd5b909150610f4082610f3b8184611566565b6114fb565b60011c90610e07565b9015610e1157506001610e11565b610665610f6b610f7293610665868a611553565b9386611553565b80821015610f8257505b93610e86565b9050610f7c565b9091506020813d602011610fb5575b81610fa560209383611416565b810103126101f557519083610db4565b3d9150610f98565b9091506020813d602011610fea575b81610fd960209383611416565b810103126101f55751906024610d78565b3d9150610fcc565b346101f5575f3660031901126101f5576020600a54604051908152f35b346101f5575f3660031901126101f5576020600d54604051908152f35b346101f5575f3660031901126101f5576020600c54604051908152f35b346101f55760403660031901126101f557611062611476565b61106a61148c565b6008549091906001600160a01b031633036110b057600680546001600160a01b039283166001600160a01b03199182161790915560078054939092169216919091179055005b60405162461bcd60e51b815260206004820152600f60248201526e2830b4b91d102327a92124a22222a760891b6044820152606490fd5b346101f5575f3660031901126101f5576020600954604051908152f35b346101f55760403660031901126101f5576101c5611120611476565b60243590611508565b346101f5575f3660031901126101f557602060ff60025416604051908152f35b346101f55760603660031901126101f557611162611476565b61116a61148c565b6044359160018060a01b031690815f52600460205261118f8360405f205410156114a2565b5f828152600560209081526040808320338452909152902054831161122d5760205f5160206118125f395f51905f5291835f526004825260405f206111d58682546114ee565b905560018060a01b031693845f526004825260405f206111f68282546114fb565b90555f8481526005835260408082203383528452902080546112199083906114ee565b9055604051908152a3602060405160018152f35b60405162461bcd60e51b815260206004820152601d60248201527f45524332303a20696e73756666696369656e7420616c6c6f77616e63650000006044820152606490fd5b346101f5575f3660031901126101f5576020600354604051908152f35b346101f5575f3660031901126101f5576006546040516001600160a01b039091168152602090f35b346101f55760403660031901126101f5576112d0611476565b335f8181526005602090815260408083206001600160a01b03909516808452948252918290206024359081905591519182527f8c5be1e5ebec7d5bd14f71427d1e84f3dd0314c0f7b2291e5b200ac8c7c3b92591a3602060405160018152f35b346101f5575f3660031901126101f5576060600954600a54600b549060405192835260208301526040820152f35b346101f5575f3660031901126101f5576040515f5f548060011c9060018116801561140c575b6020831081146105915782855290811561056d57506001146113b05761050b836104ff81850382611416565b5f8080527f290decd9548b62a8d60345a988386fc84ba6bc95484008f6362f93160ef3e563939250905b8082106113f2575090915081016020016104ff6104ef565b9192600181602092548385880101520191019092916113da565b91607f1691611384565b90601f8019910116810190811067ffffffffffffffff82111761143857604052565b634e487b7160e01b5f52604160045260245ffd5b602060409281835280519182918282860152018484015e5f828201840152601f01601f1916010190565b600435906001600160a01b03821682036101f557565b602435906001600160a01b03821682036101f557565b156114a957565b60405162461bcd60e51b815260206004820152601b60248201527f45524332303a20696e73756666696369656e742062616c616e636500000000006044820152606490fd5b91908203918211610b7657565b91908201809211610b7657565b5f5160206118125f395f51905f5260205f92611526856003546114fb565b60035560018060a01b03169384845260048252604084206115488282546114fb565b9055604051908152a3565b81810292918115918404141715610b7657565b8115611570570490565b634e487b7160e01b5f52601260045260245ffd5b6001600160701b0381111580611700575b156116ca5763ffffffff4216916115ae600b54846114ee565b801515806116bf575b806116b4575b611601575b50906040917fcf2aa50876cdfbb541206f89af0ee78d44a2abf8d328e37fa4917f982149848a938260095581600a55600b5582519182526020820152a1565b9190600a5493670de0b6b3a76400008502858104670de0b6b3a76400001486151715610b76576116486116408661163b6009548095611566565b611553565b600c546114fb565b600c55670de0b6b3a7640000810290808204670de0b6b3a76400001490151715610b76576116a060409561163b7fcf2aa50876cdfbb541206f89af0ee78d44a2abf8d328e37fa4917f982149848a986116a894611566565b600d546114fb565b600d55935090916115c2565b50600a5415156115bd565b5060095415156115b7565b60405162461bcd60e51b815260206004820152600e60248201526d506169723a204f564552464c4f5760901b6044820152606490fd5b506001600160701b03821115611595565b5f929183809360405190602082019363a9059cbb60e01b855260018060a01b0316602483015260448201526044815261174b606482611416565b51925af13d1561180a573d67ffffffffffffffff8111611438576040519061177d601f8201601f191660200183611416565b81523d5f602083013e5b816117d2575b501561179557565b60405162461bcd60e51b815260206004820152601560248201527414185a5c8e881514905394d1915497d19052531151605a1b6044820152606490fd5b80518015925082156117e7575b50505f61178d565b81925090602091810103126101f5576020015180151581036101f5575f806117df565b606061178756feddf252ad1be2c89b69c2b068fc378daa952ba7f163c4a11628f55a4df523b3efa264697066735822122081eeb91883f22a387d84f5fa7a31e05866a12db316e58b1f0b9527df649dcb3564736f6c634300081b0033"
        }
      ],
      "isFixedGasLimit": false
    },
    {
      "hash": "0xdc7c9ea62359bb865b684090692f9431c539278ebb8e286e7b2c0dcfc9178a75",
      "transactionType": "CALL",
      "contractName": null,
      "contractAddress": "0xe7f1725e7734ce288f8367e1bb143e90bb3f0512",
      "function": "createPair(address,address)",
      "arguments": [
        "0xCf7Ed3AccA5a467e9e704C703E8D87F634fB0Fc9",
        "0x5FC8d32690cc91D4c39d9d3abcBD16989F875707"
      ],
      "transaction": {
        "from": "0xf39fd6e51aad88f6f4ce6ab8827279cfffb92266",
        "to": "0xe7f1725e7734ce288f8367e1bb143e90bb3f0512",
        "gas": "0x2205a8",
        "value": "0x0",
        "input": "0xc9c65396000000000000000000000000cf7ed3acca5a467e9e704c703e8d87f634fb0fc90000000000000000000000005fc8d32690cc91d4c39d9d3abcbd16989f875707",
        "nonce": "0x8",
        "chainId": "0x7a69"
      },
      "additionalContracts": [
        {
          "transactionType": "CREATE2",
          "address": "0xc08645866727712490aa8c1848372d869127028c",
          "initCode": "0x60806040523461036e57604080519081016001600160401b03811182821017610284576040908152600c82526b053696d706c65444558204c560a41b602083015280519081016001600160401b038111828210176102845760405260038152620534c560ec1b602082015281516001600160401b038111610284575f54600181811c91168015610364575b602082101461026657601f8111610302575b50602092601f82116001146102a357928192935f92610298575b50508160011b915f199060031b1c1916175f555b80516001600160401b03811161028457600154600181811c9116801561027a575b602082101461026657601f8111610203575b50602091601f82116001146101a3579181925f92610198575b50508160011b915f199060031b1c1916176001555b601260ff1960025416176002555f600355335f5260046020525f60408120556040515f81525f7fddf252ad1be2c89b69c2b068fc378daa952ba7f163c4a11628f55a4df523b3ef60203393a3600880546001600160a01b0319163317905560405161186790816103738239f35b015190505f80610116565b601f1982169260015f52805f20915f5b8581106101eb575083600195106101d3575b505050811b0160015561012b565b01515f1960f88460031b161c191690555f80806101c5565b919260206001819286850151815501940192016101b3565b60015f527fb10e2d527612073b26eecdfd717e6a320cf44b4afac2b0732d9fcbe2b7fa0cf6601f830160051c8101916020841061025c575b601f0160051c01905b81811061025157506100fd565b5f8155600101610244565b909150819061023b565b634e487b7160e01b5f52602260045260245ffd5b90607f16906100eb565b634e487b7160e01b5f52604160045260245ffd5b015190505f806100b6565b601f198216935f8052805f20915f5b8681106102ea57508360019596106102d2575b505050811b015f556100ca565b01515f1960f88460031b161c191690555f80806102c5565b919260206001819286850151815501940192016102b2565b5f80527f290decd9548b62a8d60345a988386fc84ba6bc95484008f6362f93160ef3e563601f830160051c8101916020841061035a575b601f0160051c01905b81811061034f575061009c565b5f8155600101610342565b9091508190610339565b90607f169061008a565b5f80fdfe60806040526004361015610011575f80fd5b5f3560e01c806306fdde031461135e5780630902f1ac14611330578063095ea7b3146112b75780630dfe16811461128f57806318160ddd1461127257806323b872dd14611149578063313ce5671461112957806340c10f1914611104578063443cb4bc146110e7578063485cc955146110495780635909c0d51461102c5780635a3d54931461100f5780635a76f25e14610ff25780636a62784214610d255780636d9a640a1461093c57806370a08231146109045780637464fc3d146108e757806389afcb44146105af57806395d89b41146104ab578063a9059cbb14610417578063bc25cf77146102fc578063c45a0155146102d4578063c5700a02146102b7578063d21220a71461028f578063dd62ed3e1461023f5763fff6cae914610137575f80fd5b346101f5575f3660031901126101f5576006546040516370a0823160e01b815230600482015290602090829060249082906001600160a01b03165afa8015610201575f9061020c575b6007546040516370a0823160e01b81523060048201529250602090839060249082906001600160a01b03165afa908115610201575f916101c7575b6101c59250611584565b005b90506020823d6020116101f9575b816101e260209383611416565b810103126101f5576101c59151906101bb565b5f80fd5b3d91506101d5565b6040513d5f823e3d90fd5b506020813d602011610237575b8161022660209383611416565b810103126101f55760249051610180565b3d9150610219565b346101f55760403660031901126101f557610258611476565b61026061148c565b6001600160a01b039182165f908152600560209081526040808320949093168252928352819020549051908152f35b346101f5575f3660031901126101f5576007546040516001600160a01b039091168152602090f35b346101f5575f3660031901126101f5576020600b54604051908152f35b346101f5575f3660031901126101f5576008546040516001600160a01b039091168152602090f35b346101f55760203660031901126101f557610315611476565b6006546007546040516370a0823160e01b81523060048201526001600160a01b0391821692909116602082602481845afa9182156102015784905f936103df575b5061036761036d93600954906114ee565b91611711565b6040516370a0823160e01b815230600482015291602083602481855afa928315610201575f936103a9575b506103676101c593600a54906114ee565b92506020833d6020116103d7575b816103c460209383611416565b810103126101f557915191610367610398565b3d91506103b7565b9250506020823d60201161040f575b816103fb60209383611416565b810103126101f55790519083610367610356565b3d91506103ee565b346101f55760403660031901126101f557610430611476565b60243590335f52600460205261044c8260405f205410156114a2565b335f52600460205260405f206104638382546114ee565b905560018060a01b031690815f52600460205260405f206104858282546114fb565b90556040519081525f5160206118125f395f51905f5260203392a3602060405160018152f35b346101f5575f3660031901126101f5576040515f6001548060011c906001811680156105a5575b6020831081146105915782855290811561056d575060011461050f575b61050b836104ff81850382611416565b6040519182918261144c565b0390f35b60015f9081527fb10e2d527612073b26eecdfd717e6a320cf44b4afac2b0732d9fcbe2b7fa0cf6939250905b808210610553575090915081016020016104ff6104ef565b91926001816020925483858801015201910190929161053b565b60ff191660208086019190915291151560051b840190910191506104ff90506104ef565b634e487b7160e01b5f52602260045260245ffd5b91607f16916104d2565b346101f55760203660031901126101f55760246105ca611476565b6006546040516370a0823160e01b81523060048201529260209184919082906001600160a01b03165afa918215610201575f926108b2575b506007546040516370a0823160e01b81523060048201529190602090839060249082906001600160a01b03165afa918215610201575f9261087e575b50305f52600460205261067161066561066561066a60405f20549660035493849189611553565b611566565b9486611553565b9082151580610875575b15610824575f60249430825260046020526040822061069b8282546114ee565b90556106a9816003546114ee565b6003556040519081525f5160206118125f395f51905f5260203092a36006546106de90849083906001600160a01b0316611711565b6007546106f790839083906001600160a01b0316611711565b6006546040516370a0823160e01b81523060048201529460209186919082906001600160a01b03165afa938415610201575f946107f0575b506007546040516370a0823160e01b815230600482015290602090829060249082906001600160a01b03165afa908115610201575f916107bd575b5061077790604095611584565b83519083825282602083015260018060a01b0316907fdccd412f0b1252819cb1fd330b93224ca42612892bb3f4f789976e6d81936496853392a382519182526020820152f35b90506020813d6020116107e8575b816107d860209383611416565b810103126101f55751604061076a565b3d91506107cb565b9093506020813d60201161081c575b8161080c60209383611416565b810103126101f55751928461072f565b3d91506107ff565b60405162461bcd60e51b815260206004820152602360248201527f506169723a20494e53554646494349454e545f4c49515549444954595f42555260448201526213915160ea1b6064820152608490fd5b5081151561067b565b9091506020813d6020116108aa575b8161089a60209383611416565b810103126101f55751908361063e565b3d915061088d565b9091506020813d6020116108df575b816108ce60209383611416565b810103126101f55751906024610602565b3d91506108c1565b346101f5575f3660031901126101f5576020600e54604051908152f35b346101f55760203660031901126101f5576001600160a01b03610925611476565b165f526004602052602060405f2054604051908152f35b346101f55760603660031901126101f5576044356001600160a01b038116906024356004358383036101f55780159283158094610d1c575b15610cd857600954821080610ccd575b15610c8857602493610c6a575b8280610c4d575b50506006546040516370a0823160e01b81523060048201529360209185919082906001600160a01b03165afa8015610201575f90610c1a575b6007546040516370a0823160e01b81523060048201529450602090859060249082906001600160a01b03165afa938415610201575f94610be6575b5060095490610a1b83836114ee565b811115610bdf57610a35610a2f84846114ee565b826114ee565b945b600a5492610a4586856114ee565b821115610bd857610a5f610a5987866114ee565b836114ee565b935b8715801581610bcf575b15610b8a576103e88502908582046103e81486151715610b765760038a02908a82046003141715610b7657610a9f916114ee565b906103e88402918483046103e81485151715610b7657600387029087820460031488151715610b7657610ad8610ade92610ae4956114ee565b90611553565b92611553565b90620f4240820291808304620f42401490151715610b765710610b4757610b0a91611584565b6040519384526020840152604083015260608201527fd78ad95fa46c994b6551d0da85fc275fe613ce37657fb8d5e3d130840159d82260803392a3005b60405162461bcd60e51b8152602060048201526007602482015266506169723a204b60c81b6044820152606490fd5b634e487b7160e01b5f52601160045260245ffd5b60405162461bcd60e51b815260206004820152601f60248201527f506169723a20494e53554646494349454e545f494e5055545f414d4f554e54006044820152606490fd5b50851515610a6b565b5f93610a61565b5f94610a37565b9093506020813d602011610c12575b81610c0260209383611416565b810103126101f557519285610a0c565b3d9150610bf5565b506020833d602011610c45575b81610c3460209383611416565b810103126101f557602492516109d1565b3d9150610c27565b600754610c6392906001600160a01b0316611711565b8482610998565b600654610c8390839083906001600160a01b0316611711565b610991565b60405162461bcd60e51b815260206004820152601c60248201527f506169723a20494e53554646494349454e545f4c4951554944495459000000006044820152606490fd5b50600a548310610984565b606460405162461bcd60e51b815260206004820152602060248201527f506169723a20494e53554646494349454e545f4f55545055545f414d4f554e546044820152fd5b50821515610974565b346101f55760203660031901126101f5576024610d40611476565b6006546040516370a0823160e01b81523060048201529260209184919082906001600160a01b03165afa918215610201575f92610fbd575b506007546040516370a0823160e01b81523060048201529190602090839060249082906001600160a01b03165afa918215610201575f92610f89575b50600954610dc281856114ee565b91600a54610dd081866114ee565b926003549182155f14610f5757505050610dea8284611553565b5f6003821115610f495750808060011c60018101809111610b7657905b828210610f2a5750505b6103e7198101908111610b7657936003546103e88101809111610b76576003555f805260046020527f17ef568e3e12ab5b9c7254a8d58478811de00f9e6eb34345acd53bf8fd09d3ec80546103e8810191908210610b7657555f805f5160206118125f395f51905f5260206040516103e88152a35b8415610ed957602095610e9c86610ea194611508565b611584565b604051918252838201527f4c209b5fc8ad50758f13e2e1088ba56a560dff690a1c6fef26394f4c03821c4f60403392a2604051908152f35b60405162461bcd60e51b815260206004820152602360248201527f506169723a20494e53554646494349454e545f4c49515549444954595f4d494e60448201526215115160ea1b6064820152608490fd5b909150610f4082610f3b8184611566565b6114fb565b60011c90610e07565b9015610e1157506001610e11565b610665610f6b610f7293610665868a611553565b9386611553565b80821015610f8257505b93610e86565b9050610f7c565b9091506020813d602011610fb5575b81610fa560209383611416565b810103126101f557519083610db4565b3d9150610f98565b9091506020813d602011610fea575b81610fd960209383611416565b810103126101f55751906024610d78565b3d9150610fcc565b346101f5575f3660031901126101f5576020600a54604051908152f35b346101f5575f3660031901126101f5576020600d54604051908152f35b346101f5575f3660031901126101f5576020600c54604051908152f35b346101f55760403660031901126101f557611062611476565b61106a61148c565b6008549091906001600160a01b031633036110b057600680546001600160a01b039283166001600160a01b03199182161790915560078054939092169216919091179055005b60405162461bcd60e51b815260206004820152600f60248201526e2830b4b91d102327a92124a22222a760891b6044820152606490fd5b346101f5575f3660031901126101f5576020600954604051908152f35b346101f55760403660031901126101f5576101c5611120611476565b60243590611508565b346101f5575f3660031901126101f557602060ff60025416604051908152f35b346101f55760603660031901126101f557611162611476565b61116a61148c565b6044359160018060a01b031690815f52600460205261118f8360405f205410156114a2565b5f828152600560209081526040808320338452909152902054831161122d5760205f5160206118125f395f51905f5291835f526004825260405f206111d58682546114ee565b905560018060a01b031693845f526004825260405f206111f68282546114fb565b90555f8481526005835260408082203383528452902080546112199083906114ee565b9055604051908152a3602060405160018152f35b60405162461bcd60e51b815260206004820152601d60248201527f45524332303a20696e73756666696369656e7420616c6c6f77616e63650000006044820152606490fd5b346101f5575f3660031901126101f5576020600354604051908152f35b346101f5575f3660031901126101f5576006546040516001600160a01b039091168152602090f35b346101f55760403660031901126101f5576112d0611476565b335f8181526005602090815260408083206001600160a01b03909516808452948252918290206024359081905591519182527f8c5be1e5ebec7d5bd14f71427d1e84f3dd0314c0f7b2291e5b200ac8c7c3b92591a3602060405160018152f35b346101f5575f3660031901126101f5576060600954600a54600b549060405192835260208301526040820152f35b346101f5575f3660031901126101f5576040515f5f548060011c9060018116801561140c575b6020831081146105915782855290811561056d57506001146113b05761050b836104ff81850382611416565b5f8080527f290decd9548b62a8d60345a988386fc84ba6bc95484008f6362f93160ef3e563939250905b8082106113f2575090915081016020016104ff6104ef565b9192600181602092548385880101520191019092916113da565b91607f1691611384565b90601f8019910116810190811067ffffffffffffffff82111761143857604052565b634e487b7160e01b5f52604160045260245ffd5b602060409281835280519182918282860152018484015e5f828201840152601f01601f1916010190565b600435906001600160a01b03821682036101f557565b602435906001600160a01b03821682036101f557565b156114a957565b60405162461bcd60e51b815260206004820152601b60248201527f45524332303a20696e73756666696369656e742062616c616e636500000000006044820152606490fd5b91908203918211610b7657565b91908201809211610b7657565b5f5160206118125f395f51905f5260205f92611526856003546114fb565b60035560018060a01b03169384845260048252604084206115488282546114fb565b9055604051908152a3565b81810292918115918404141715610b7657565b8115611570570490565b634e487b7160e01b5f52601260045260245ffd5b6001600160701b0381111580611700575b156116ca5763ffffffff4216916115ae600b54846114ee565b801515806116bf575b806116b4575b611601575b50906040917fcf2aa50876cdfbb541206f89af0ee78d44a2abf8d328e37fa4917f982149848a938260095581600a55600b5582519182526020820152a1565b9190600a5493670de0b6b3a76400008502858104670de0b6b3a76400001486151715610b76576116486116408661163b6009548095611566565b611553565b600c546114fb565b600c55670de0b6b3a7640000810290808204670de0b6b3a76400001490151715610b76576116a060409561163b7fcf2aa50876cdfbb541206f89af0ee78d44a2abf8d328e37fa4917f982149848a986116a894611566565b600d546114fb565b600d55935090916115c2565b50600a5415156115bd565b5060095415156115b7565b60405162461bcd60e51b815260206004820152600e60248201526d506169723a204f564552464c4f5760901b6044820152606490fd5b506001600160701b03821115611595565b5f929183809360405190602082019363a9059cbb60e01b855260018060a01b0316602483015260448201526044815261174b606482611416565b51925af13d1561180a573d67ffffffffffffffff8111611438576040519061177d601f8201601f191660200183611416565b81523d5f602083013e5b816117d2575b501561179557565b60405162461bcd60e51b815260206004820152601560248201527414185a5c8e881514905394d1915497d19052531151605a1b6044820152606490fd5b80518015925082156117e7575b50505f61178d565b81925090602091810103126101f5576020015180151581036101f5575f806117df565b606061178756feddf252ad1be2c89b69c2b068fc378daa952ba7f163c4a11628f55a4df523b3efa264697066735822122081eeb91883f22a387d84f5fa7a31e05866a12db316e58b1f0b9527df649dcb3564736f6c634300081b0033"
        }
      ],
      "isFixedGasLimit": false
    },
    {
      "hash": "0x2181fefa6a147d51645213585ba4806078b7d48a8516c7822c6afc9ccaf6918e",
      "transactionType": "CALL",
      "contractName": null,
      "contractAddress": "0xcf7ed3acca5a467e9e704c703e8d87f634fb0fc9",
      "function": "approve(address,uint256)",
      "arguments": [
        "0x9fE46736679d2D9a65F0992F2272dE9f3c7fa6e0",
        "300000000000000000000000"
      ],
      "transaction": {
        "from": "0xf39fd6e51aad88f6f4ce6ab8827279cfffb92266",
        "to": "0xcf7ed3acca5a467e9e704c703e8d87f634fb0fc9",
        "gas": "0x10691",
        "value": "0x0",
        "input": "0x095ea7b30000000000000000000000009fe46736679d2d9a65f0992f2272de9f3c7fa6e0000000000000000000000000000000000000000000003f870857a3e0e3800000",
        "nonce": "0x9",
        "chainId": "0x7a69"
      },
      "additionalContracts": [],
      "isFixedGasLimit": false
    },
    {
      "hash": "0x38274c95348d66d8a047491db0c78e27c9e07f1bb9b1434b4a51517795a28655",
      "transactionType": "CALL",
      "contractName": null,
      "contractAddress": "0xdc64a140aa3e981100a9beca4e685f962f0cf6c9",
      "function": "approve(address,uint256)",
      "arguments": [
        "0x9fE46736679d2D9a65F0992F2272dE9f3c7fa6e0",
        "300000000000000000000000"
      ],
      "transaction": {
        "from": "0xf39fd6e51aad88f6f4ce6ab8827279cfffb92266",
        "to": "0xdc64a140aa3e981100a9beca4e685f962f0cf6c9",
        "gas": "0x10691",
        "value": "0x0",
        "input": "0x095ea7b30000000000000000000000009fe46736679d2d9a65f0992f2272de9f3c7fa6e0000000000000000000000000000000000000000000003f870857a3e0e3800000",
        "nonce": "0xa",
        "chainId": "0x7a69"
      },
      "additionalContracts": [],
      "isFixedGasLimit": false
    },
    {
      "hash": "0x5e00cc386e8aeb7c55e162028acadaecb3b631415205d5487e88bb7c1bc541d9",
      "transactionType": "CALL",
      "contractName": null,
      "contractAddress": "0x5fc8d32690cc91d4c39d9d3abcbd16989f875707",
      "function": "approve(address,uint256)",
      "arguments": [
        "0x9fE46736679d2D9a65F0992F2272dE9f3c7fa6e0",
        "300000000000000000000000"
      ],
      "transaction": {
        "from": "0xf39fd6e51aad88f6f4ce6ab8827279cfffb92266",
        "to": "0x5fc8d32690cc91d4c39d9d3abcbd16989f875707",
        "gas": "0x10691",
        "value": "0x0",
        "input": "0x095ea7b30000000000000000000000009fe46736679d2d9a65f0992f2272de9f3c7fa6e0000000000000000000000000000000000000000000003f870857a3e0e3800000",
        "nonce": "0xb",
        "chainId": "0x7a69"
      },
      "additionalContracts": [],
      "isFixedGasLimit": false
    },
    {
      "hash": "0xdaa21dc4c264020f5a8ce267e022345cce02a4798ab82c887bb256c069385d58",
      "transactionType": "CALL",
      "contractName": null,
      "contractAddress": "0x9fe46736679d2d9a65f0992f2272de9f3c7fa6e0",
      "function": "addLiquidity(address,address,uint256,uint256,uint256,uint256,address,uint256)",
      "arguments": [
        "0xCf7Ed3AccA5a467e9e704C703E8D87F634fB0Fc9",
        "0xDc64a140Aa3E981100a9becA4E685f962f0cF6C9",
        "100000000000000000000000",
        "100000000000000000000000",
        "0",
        "0",
        "0xf39Fd6e51aad88F6F4ce6aB8827279cffFb92266",
        "1753276562"
      ],
      "transaction": {
        "from": "0xf39fd6e51aad88f6f4ce6ab8827279cfffb92266",
        "to": "0x9fe46736679d2d9a65f0992f2272de9f3c7fa6e0",
        "gas": "0x5cb12",
        "value": "0x0",
        "input": "0xe8e33700000000000000000000000000cf7ed3acca5a467e9e704c703e8d87f634fb0fc9000000000000000000000000dc64a140aa3e981100a9beca4e685f962f0cf6c900000000000000000000000000000000000000000000152d02c7e14af680000000000000000000000000000000000000000000000000152d02c7e14af680000000000000000000000000000000000000000000000000000000000000000000000000000000000000000000000000000000000000000000000000000000000000000000000000000000000000f39fd6e51aad88f6f4ce6ab8827279cfffb92266000000000000000000000000000000000000000000000000000000006880e092",
        "nonce": "0xc",
        "chainId": "0x7a69"
      },
      "additionalContracts": [],
      "isFixedGasLimit": false
    },
    {
      "hash": "0xd947a46ca2de928645a5799c2a29f1af0393917b4be7996a56aa7533e72044b6",
      "transactionType": "CALL",
      "contractName": null,
      "contractAddress": "0x9fe46736679d2d9a65f0992f2272de9f3c7fa6e0",
      "function": "addLiquidity(address,address,uint256,uint256,uint256,uint256,address,uint256)",
      "arguments": [
        "0xDc64a140Aa3E981100a9becA4E685f962f0cF6C9",
        "0x5FC8d32690cc91D4c39d9d3abcBD16989F875707",
        "100000000000000000000000",
        "100000000000000000000000",
        "0",
        "0",
        "0xf39Fd6e51aad88F6F4ce6aB8827279cffFb92266",
        "1753276562"
      ],
      "transaction": {
        "from": "0xf39fd6e51aad88f6f4ce6ab8827279cfffb92266",
        "to": "0x9fe46736679d2d9a65f0992f2272de9f3c7fa6e0",
        "gas": "0x5d607",
        "value": "0x0",
        "input": "0xe8e33700000000000000000000000000dc64a140aa3e981100a9beca4e685f962f0cf6c90000000000000000000000005fc8d32690cc91d4c39d9d3abcbd16989f87570700000000000000000000000000000000000000000000152d02c7e14af680000000000000000000000000000000000000000000000000152d02c7e14af680000000000000000000000000000000000000000000000000000000000000000000000000000000000000000000000000000000000000000000000000000000000000000000000000000000000000f39fd6e51aad88f6f4ce6ab8827279cfffb92266000000000000000000000000000000000000000000000000000000006880e092",
        "nonce": "0xd",
        "chainId": "0x7a69"
      },
      "additionalContracts": [],
      "isFixedGasLimit": false
    },
    {
      "hash": "0x2ff51cde19a7d718b4d895699f80c03916e4ab44618cc9459bd6a05982525ca9",
      "transactionType": "CALL",
      "contractName": null,
      "contractAddress": "0x9fe46736679d2d9a65f0992f2272de9f3c7fa6e0",
      "function": "addLiquidity(address,address,uint256,uint256,uint256,uint256,address,uint256)",
      "arguments": [
        "0xCf7Ed3AccA5a467e9e704C703E8D87F634fB0Fc9",
        "0x5FC8d32690cc91D4c39d9d3abcBD16989F875707",
        "100000000000000000000000",
        "100000000000000000000000",
        "0",
        "0",
        "0xf39Fd6e51aad88F6F4ce6aB8827279cffFb92266",
        "1753276562"
      ],
      "transaction": {
        "from": "0xf39fd6e51aad88f6f4ce6ab8827279cfffb92266",
        "to": "0x9fe46736679d2d9a65f0992f2272de9f3c7fa6e0",
        "gas": "0x62dfb",
        "value": "0x0",
        "input": "0xe8e33700000000000000000000000000cf7ed3acca5a467e9e704c703e8d87f634fb0fc90000000000000000000000005fc8d32690cc91d4c39d9d3abcbd16989f87570700000000000000000000000000000000000000000000152d02c7e14af680000000000000000000000000000000000000000000000000152d02c7e14af680000000000000000000000000000000000000000000000000000000000000000000000000000000000000000000000000000000000000000000000000000000000000000000000000000000000000f39fd6e51aad88f6f4ce6ab8827279cfffb92266000000000000000000000000000000000000000000000000000000006880e092",
        "nonce": "0xe",
        "chainId": "0x7a69"
      },
      "additionalContracts": [],
      "isFixedGasLimit": false
    }
  ],
  "receipts": [
    {
      "status": "0x1",
      "cumulativeGasUsed": "0x17860a",
      "logs": [
        {
          "address": "0x4d3eb92042e785b05ee74840c6875cff529ccaf6",
          "topics": [
            "0xddf252ad1be2c89b69c2b068fc378daa952ba7f163c4a11628f55a4df523b3ef",
            "0x0000000000000000000000000000000000000000000000000000000000000000",
            "0x000000000000000000000000e7f1725e7734ce288f8367e1bb143e90bb3f0512"
          ],
          "data": "0x0000000000000000000000000000000000000000000000000000000000000000",
          "blockHash": "0x25f10d3342a763a1f24cfb0f5ae48674dd71ee410fd9f1078c47faa842f6464a",
          "blockNumber": "0xdf",
          "blockTimestamp": "0x6880dcac",
          "transactionHash": "0xa7f1efca2b4617556c0c0b1546d4f89c5f697a68729ba129f5980f525f53f81a",
          "transactionIndex": "0x0",
          "logIndex": "0x0",
          "removed": false
        },
        {
          "address": "0xe7f1725e7734ce288f8367e1bb143e90bb3f0512",
          "topics": [
            "0x0d3648bd0f6ba80134a33ba9275ac585d9d315f0ad8355cddefde31afa28d0e9",
            "0x000000000000000000000000cf7ed3acca5a467e9e704c703e8d87f634fb0fc9",
            "0x000000000000000000000000dc64a140aa3e981100a9beca4e685f962f0cf6c9"
          ],
          "data": "0x0000000000000000000000004d3eb92042e785b05ee74840c6875cff529ccaf60000000000000000000000000000000000000000000000000000000000000001",
          "blockHash": "0x25f10d3342a763a1f24cfb0f5ae48674dd71ee410fd9f1078c47faa842f6464a",
          "blockNumber": "0xdf",
          "blockTimestamp": "0x6880dcac",
          "transactionHash": "0xa7f1efca2b4617556c0c0b1546d4f89c5f697a68729ba129f5980f525f53f81a",
          "transactionIndex": "0x0",
          "logIndex": "0x1",
          "removed": false
        }
      ],
      "logsBloom": "0x00000000000000000400000000000000080000000000000000000000000000000000000000000080400000000000000010000000000000000000000000000000000000000000000000000008000000000000000000000001000000000000000000000000020000000000000000000800000000000000000000000014000000000000000000000000000000000000000000000000000000000000000000000000000000001800000000000002080000000000040000000000000000000000000000000002000000000000000000001040000000000100000000000000000020000000000000000000088000000000000000000000000000800000000000000000",
      "type": "0x2",
      "transactionHash": "0xa7f1efca2b4617556c0c0b1546d4f89c5f697a68729ba129f5980f525f53f81a",
      "transactionIndex": "0x0",
      "blockHash": "0x25f10d3342a763a1f24cfb0f5ae48674dd71ee410fd9f1078c47faa842f6464a",
      "blockNumber": "0xdf",
      "gasUsed": "0x17860a",
      "effectiveGasPrice": "0x8",
      "blobGasPrice": "0x1",
      "from": "0xf39fd6e51aad88f6f4ce6ab8827279cfffb92266",
      "to": "0xe7f1725e7734ce288f8367e1bb143e90bb3f0512",
      "contractAddress": null
    },
    {
      "status": "0x1",
      "cumulativeGasUsed": "0x2ec951",
      "logs": [
        {
          "address": "0xd5faf37e0592c245215f070b3f5c2cccb202bdae",
          "topics": [
            "0xddf252ad1be2c89b69c2b068fc378daa952ba7f163c4a11628f55a4df523b3ef",
            "0x0000000000000000000000000000000000000000000000000000000000000000",
            "0x000000000000000000000000e7f1725e7734ce288f8367e1bb143e90bb3f0512"
          ],
          "data": "0x0000000000000000000000000000000000000000000000000000000000000000",
          "blockHash": "0x25f10d3342a763a1f24cfb0f5ae48674dd71ee410fd9f1078c47faa842f6464a",
          "blockNumber": "0xdf",
          "blockTimestamp": "0x6880dcac",
          "transactionHash": "0x46a1dcd4dde945e2393d14e81a7c65f52a844c647c1d86f747b405c30aee9dfd",
          "transactionIndex": "0x1",
          "logIndex": "0x2",
          "removed": false
        },
        {
          "address": "0xe7f1725e7734ce288f8367e1bb143e90bb3f0512",
          "topics": [
            "0x0d3648bd0f6ba80134a33ba9275ac585d9d315f0ad8355cddefde31afa28d0e9",
            "0x0000000000000000000000005fc8d32690cc91d4c39d9d3abcbd16989f875707",
            "0x000000000000000000000000dc64a140aa3e981100a9beca4e685f962f0cf6c9"
          ],
          "data": "0x000000000000000000000000d5faf37e0592c245215f070b3f5c2cccb202bdae0000000000000000000000000000000000000000000000000000000000000002",
          "blockHash": "0x25f10d3342a763a1f24cfb0f5ae48674dd71ee410fd9f1078c47faa842f6464a",
          "blockNumber": "0xdf",
          "blockTimestamp": "0x6880dcac",
          "transactionHash": "0x46a1dcd4dde945e2393d14e81a7c65f52a844c647c1d86f747b405c30aee9dfd",
          "transactionIndex": "0x1",
          "logIndex": "0x3",
          "removed": false
        }
      ],
      "logsBloom": "0x00040000000000000400000000000000000000000000000000000000000000000000000000000000400000000400000050000000000000000000000000000000000000000000000000000008000000000000000000000001000000000000000000000000020000000000000000000800000000000000000008000014000000000000000000000000000000000000000000000000000000000000000000000000100000000800000000000002080000000000000000000000000000000000000000000002000000000000000000001040000000000000001000000000000020000000000000000000080000000000000000000000000000800000000000000000",
      "type": "0x2",
      "transactionHash": "0x46a1dcd4dde945e2393d14e81a7c65f52a844c647c1d86f747b405c30aee9dfd",
      "transactionIndex": "0x1",
      "blockHash": "0x25f10d3342a763a1f24cfb0f5ae48674dd71ee410fd9f1078c47faa842f6464a",
      "blockNumber": "0xdf",
      "gasUsed": "0x174347",
      "effectiveGasPrice": "0x8",
      "blobGasPrice": "0x1",
      "from": "0xf39fd6e51aad88f6f4ce6ab8827279cfffb92266",
      "to": "0xe7f1725e7734ce288f8367e1bb143e90bb3f0512",
      "contractAddress": null
    },
    {
      "status": "0x1",
      "cumulativeGasUsed": "0x460ca4",
      "logs": [
        {
          "address": "0xc08645866727712490aa8c1848372d869127028c",
          "topics": [
            "0xddf252ad1be2c89b69c2b068fc378daa952ba7f163c4a11628f55a4df523b3ef",
            "0x0000000000000000000000000000000000000000000000000000000000000000",
            "0x000000000000000000000000e7f1725e7734ce288f8367e1bb143e90bb3f0512"
          ],
          "data": "0x0000000000000000000000000000000000000000000000000000000000000000",
          "blockHash": "0x25f10d3342a763a1f24cfb0f5ae48674dd71ee410fd9f1078c47faa842f6464a",
          "blockNumber": "0xdf",
          "blockTimestamp": "0x6880dcac",
          "transactionHash": "0xdc7c9ea62359bb865b684090692f9431c539278ebb8e286e7b2c0dcfc9178a75",
          "transactionIndex": "0x2",
          "logIndex": "0x4",
          "removed": false
        },
        {
          "address": "0xe7f1725e7734ce288f8367e1bb143e90bb3f0512",
          "topics": [
            "0x0d3648bd0f6ba80134a33ba9275ac585d9d315f0ad8355cddefde31afa28d0e9",
            "0x0000000000000000000000005fc8d32690cc91d4c39d9d3abcbd16989f875707",
            "0x000000000000000000000000cf7ed3acca5a467e9e704c703e8d87f634fb0fc9"
          ],
          "data": "0x000000000000000000000000c08645866727712490aa8c1848372d869127028c0000000000000000000000000000000000000000000000000000000000000003",
          "blockHash": "0x25f10d3342a763a1f24cfb0f5ae48674dd71ee410fd9f1078c47faa842f6464a",
          "blockNumber": "0xdf",
          "blockTimestamp": "0x6880dcac",
          "transactionHash": "0xdc7c9ea62359bb865b684090692f9431c539278ebb8e286e7b2c0dcfc9178a75",
          "transactionIndex": "0x2",
          "logIndex": "0x5",
          "removed": false
        }
      ],
      "logsBloom": "0x00000000000000000400000000000000000000000000000000000000000000000000000000000080000000000000000050000000000000000000000000000000000000000000000000000008000000000000000000000000000000000000000000000004020000000000000000000800000000000000400000000014000000000000000000000000000000000000000000000000000000000000000000000000100000001800000000000002000000000000000000000000000000000000000000000002000000000000000000001040000000000000001000040000000020000000000000000000088000000000000000000000000000800000000000000000",
      "type": "0x2",
      "transactionHash": "0xdc7c9ea62359bb865b684090692f9431c539278ebb8e286e7b2c0dcfc9178a75",
      "transactionIndex": "0x2",
      "blockHash": "0x25f10d3342a763a1f24cfb0f5ae48674dd71ee410fd9f1078c47faa842f6464a",
      "blockNumber": "0xdf",
      "gasUsed": "0x174353",
      "effectiveGasPrice": "0x8",
      "blobGasPrice": "0x1",
      "from": "0xf39fd6e51aad88f6f4ce6ab8827279cfffb92266",
      "to": "0xe7f1725e7734ce288f8367e1bb143e90bb3f0512",
      "contractAddress": null
    },
    {
      "status": "0x1",
      "cumulativeGasUsed": "0x46c02d",
      "logs": [
        {
          "address": "0xcf7ed3acca5a467e9e704c703e8d87f634fb0fc9",
          "topics": [
            "0x8c5be1e5ebec7d5bd14f71427d1e84f3dd0314c0f7b2291e5b200ac8c7c3b925",
            "0x000000000000000000000000f39fd6e51aad88f6f4ce6ab8827279cfffb92266",
            "0x0000000000000000000000009fe46736679d2d9a65f0992f2272de9f3c7fa6e0"
          ],
          "data": "0x000000000000000000000000000000000000000000003f870857a3e0e3800000",
          "blockHash": "0x25f10d3342a763a1f24cfb0f5ae48674dd71ee410fd9f1078c47faa842f6464a",
          "blockNumber": "0xdf",
          "blockTimestamp": "0x6880dcac",
          "transactionHash": "0x2181fefa6a147d51645213585ba4806078b7d48a8516c7822c6afc9ccaf6918e",
          "transactionIndex": "0x3",
          "logIndex": "0x6",
          "removed": false
        }
      ],
      "logsBloom": "0x00000000000000000000000000000000000000000000000000000000000000000000000000000000000400000000080000400000000000000000000000200001000000000000000000000000000000000000000000000000000000000000400000000000000000000000000100000000000000000000000000000000000000000000000008000000000000000000000000000000000000000000000000000000020000000000000000000000000000000000000000000000000000000000000000000000000000200000000000000000000000002000000000000000000000000010000000000000000000000000000000000000000000000000000000000000",
      "type": "0x2",
      "transactionHash": "0x2181fefa6a147d51645213585ba4806078b7d48a8516c7822c6afc9ccaf6918e",
      "transactionIndex": "0x3",
      "blockHash": "0x25f10d3342a763a1f24cfb0f5ae48674dd71ee410fd9f1078c47faa842f6464a",
      "blockNumber": "0xdf",
      "gasUsed": "0xb389",
      "effectiveGasPrice": "0x8",
      "blobGasPrice": "0x1",
      "from": "0xf39fd6e51aad88f6f4ce6ab8827279cfffb92266",
      "to": "0xcf7ed3acca5a467e9e704c703e8d87f634fb0fc9",
      "contractAddress": null
    },
    {
      "status": "0x1",
      "cumulativeGasUsed": "0x4773b6",
      "logs": [
        {
          "address": "0xdc64a140aa3e981100a9beca4e685f962f0cf6c9",
          "topics": [
            "0x8c5be1e5ebec7d5bd14f71427d1e84f3dd0314c0f7b2291e5b200ac8c7c3b925",
            "0x000000000000000000000000f39fd6e51aad88f6f4ce6ab8827279cfffb92266",
            "0x0000000000000000000000009fe46736679d2d9a65f0992f2272de9f3c7fa6e0"
          ],
          "data": "0x000000000000000000000000000000000000000000003f870857a3e0e3800000",
          "blockHash": "0x25f10d3342a763a1f24cfb0f5ae48674dd71ee410fd9f1078c47faa842f6464a",
          "blockNumber": "0xdf",
          "blockTimestamp": "0x6880dcac",
          "transactionHash": "0x38274c95348d66d8a047491db0c78e27c9e07f1bb9b1434b4a51517795a28655",
          "transactionIndex": "0x4",
          "logIndex": "0x7",
          "removed": false
        }
      ],
      "logsBloom": "0x00000000000000000000000000000000000000000000000000000000000000000000000000000000000400000000000000400000000000000000000000200000000000000000000000000000000000000000000000000000000000000000400000000000000000000000000100000000000000000000000000000000000000000000000000000000000000000000000000000000000000000000000000000000020000000000000000000000000000000000000000000000000000000000000000000000000000200000000000000000000000002020000000000000000000000010000000000000000000000000000000000001000000000100000000000000",
      "type": "0x2",
      "transactionHash": "0x38274c95348d66d8a047491db0c78e27c9e07f1bb9b1434b4a51517795a28655",
      "transactionIndex": "0x4",
      "blockHash": "0x25f10d3342a763a1f24cfb0f5ae48674dd71ee410fd9f1078c47faa842f6464a",
      "blockNumber": "0xdf",
      "gasUsed": "0xb389",
      "effectiveGasPrice": "0x8",
      "blobGasPrice": "0x1",
      "from": "0xf39fd6e51aad88f6f4ce6ab8827279cfffb92266",
      "to": "0xdc64a140aa3e981100a9beca4e685f962f0cf6c9",
      "contractAddress": null
    },
    {
      "status": "0x1",
      "cumulativeGasUsed": "0x48273f",
      "logs": [
        {
          "address": "0x5fc8d32690cc91d4c39d9d3abcbd16989f875707",
          "topics": [
            "0x8c5be1e5ebec7d5bd14f71427d1e84f3dd0314c0f7b2291e5b200ac8c7c3b925",
            "0x000000000000000000000000f39fd6e51aad88f6f4ce6ab8827279cfffb92266",
            "0x0000000000000000000000009fe46736679d2d9a65f0992f2272de9f3c7fa6e0"
          ],
          "data": "0x000000000000000000000000000000000000000000003f870857a3e0e3800000",
          "blockHash": "0x25f10d3342a763a1f24cfb0f5ae48674dd71ee410fd9f1078c47faa842f6464a",
          "blockNumber": "0xdf",
          "blockTimestamp": "0x6880dcac",
          "transactionHash": "0x5e00cc386e8aeb7c55e162028acadaecb3b631415205d5487e88bb7c1bc541d9",
          "transactionIndex": "0x5",
          "logIndex": "0x8",
          "removed": false
        }
      ],
      "logsBloom": "0x00000000000000000000000000000000000000000000000000000000000000000000000000000000000400000000000000400000000000000000000000200000000000000000000000000000000000000000000240000000000000000000400000000000000000000000000100000000000000000000000000000000000000000000000000000000000000000000000000000000000000000000000000000000020000000000000000000000000000000000000000000000000000000000000000000000000000200000000000000000000000002000000000000001000000000010000000000000000000000000000000000000000000000000000000000000",
      "type": "0x2",
      "transactionHash": "0x5e00cc386e8aeb7c55e162028acadaecb3b631415205d5487e88bb7c1bc541d9",
      "transactionIndex": "0x5",
      "blockHash": "0x25f10d3342a763a1f24cfb0f5ae48674dd71ee410fd9f1078c47faa842f6464a",
      "blockNumber": "0xdf",
      "gasUsed": "0xb389",
      "effectiveGasPrice": "0x8",
      "blobGasPrice": "0x1",
      "from": "0xf39fd6e51aad88f6f4ce6ab8827279cfffb92266",
      "to": "0x5fc8d32690cc91d4c39d9d3abcbd16989f875707",
      "contractAddress": null
    },
    {
      "status": "0x1",
      "cumulativeGasUsed": "0x4c58f7",
      "logs": [
        {
          "address": "0xcf7ed3acca5a467e9e704c703e8d87f634fb0fc9",
          "topics": [
            "0xddf252ad1be2c89b69c2b068fc378daa952ba7f163c4a11628f55a4df523b3ef",
            "0x000000000000000000000000f39fd6e51aad88f6f4ce6ab8827279cfffb92266",
            "0x0000000000000000000000004d3eb92042e785b05ee74840c6875cff529ccaf6"
          ],
          "data": "0x00000000000000000000000000000000000000000000152d02c7e14af6800000",
          "blockHash": "0x25f10d3342a763a1f24cfb0f5ae48674dd71ee410fd9f1078c47faa842f6464a",
          "blockNumber": "0xdf",
          "blockTimestamp": "0x6880dcac",
          "transactionHash": "0xdaa21dc4c264020f5a8ce267e022345cce02a4798ab82c887bb256c069385d58",
          "transactionIndex": "0x6",
          "logIndex": "0x9",
          "removed": false
        },
        {
          "address": "0xdc64a140aa3e981100a9beca4e685f962f0cf6c9",
          "topics": [
            "0xddf252ad1be2c89b69c2b068fc378daa952ba7f163c4a11628f55a4df523b3ef",
            "0x000000000000000000000000f39fd6e51aad88f6f4ce6ab8827279cfffb92266",
            "0x0000000000000000000000004d3eb92042e785b05ee74840c6875cff529ccaf6"
          ],
          "data": "0x00000000000000000000000000000000000000000000152d02c7e14af6800000",
          "blockHash": "0x25f10d3342a763a1f24cfb0f5ae48674dd71ee410fd9f1078c47faa842f6464a",
          "blockNumber": "0xdf",
          "blockTimestamp": "0x6880dcac",
          "transactionHash": "0xdaa21dc4c264020f5a8ce267e022345cce02a4798ab82c887bb256c069385d58",
          "transactionIndex": "0x6",
          "logIndex": "0xa",
          "removed": false
        },
        {
          "address": "0x4d3eb92042e785b05ee74840c6875cff529ccaf6",
          "topics": [
            "0xddf252ad1be2c89b69c2b068fc378daa952ba7f163c4a11628f55a4df523b3ef",
            "0x0000000000000000000000000000000000000000000000000000000000000000",
            "0x0000000000000000000000000000000000000000000000000000000000000000"
          ],
          "data": "0x00000000000000000000000000000000000000000000000000000000000003e8",
          "blockHash": "0x25f10d3342a763a1f24cfb0f5ae48674dd71ee410fd9f1078c47faa842f6464a",
          "blockNumber": "0xdf",
          "blockTimestamp": "0x6880dcac",
          "transactionHash": "0xdaa21dc4c264020f5a8ce267e022345cce02a4798ab82c887bb256c069385d58",
          "transactionIndex": "0x6",
          "logIndex": "0xb",
          "removed": false
        },
        {
          "address": "0x4d3eb92042e785b05ee74840c6875cff529ccaf6",
          "topics": [
            "0xddf252ad1be2c89b69c2b068fc378daa952ba7f163c4a11628f55a4df523b3ef",
            "0x0000000000000000000000000000000000000000000000000000000000000000",
            "0x000000000000000000000000f39fd6e51aad88f6f4ce6ab8827279cfffb92266"
          ],
          "data": "0x00000000000000000000000000000000000000000000152d02c7e14af67ffc18",
          "blockHash": "0x25f10d3342a763a1f24cfb0f5ae48674dd71ee410fd9f1078c47faa842f6464a",
          "blockNumber": "0xdf",
          "blockTimestamp": "0x6880dcac",
          "transactionHash": "0xdaa21dc4c264020f5a8ce267e022345cce02a4798ab82c887bb256c069385d58",
          "transactionIndex": "0x6",
          "logIndex": "0xc",
          "removed": false
        },
        {
          "address": "0x4d3eb92042e785b05ee74840c6875cff529ccaf6",
          "topics": [
            "0xcf2aa50876cdfbb541206f89af0ee78d44a2abf8d328e37fa4917f982149848a"
          ],
          "data": "0x00000000000000000000000000000000000000000000152d02c7e14af680000000000000000000000000000000000000000000000000152d02c7e14af6800000",
          "blockHash": "0x25f10d3342a763a1f24cfb0f5ae48674dd71ee410fd9f1078c47faa842f6464a",
          "blockNumber": "0xdf",
          "blockTimestamp": "0x6880dcac",
          "transactionHash": "0xdaa21dc4c264020f5a8ce267e022345cce02a4798ab82c887bb256c069385d58",
          "transactionIndex": "0x6",
          "logIndex": "0xd",
          "removed": false
        },
        {
          "address": "0x4d3eb92042e785b05ee74840c6875cff529ccaf6",
          "topics": [
            "0x4c209b5fc8ad50758f13e2e1088ba56a560dff690a1c6fef26394f4c03821c4f",
            "0x0000000000000000000000009fe46736679d2d9a65f0992f2272de9f3c7fa6e0"
          ],
          "data": "0x00000000000000000000000000000000000000000000152d02c7e14af680000000000000000000000000000000000000000000000000152d02c7e14af6800000",
          "blockHash": "0x25f10d3342a763a1f24cfb0f5ae48674dd71ee410fd9f1078c47faa842f6464a",
          "blockNumber": "0xdf",
          "blockTimestamp": "0x6880dcac",
          "transactionHash": "0xdaa21dc4c264020f5a8ce267e022345cce02a4798ab82c887bb256c069385d58",
          "transactionIndex": "0x6",
          "logIndex": "0xe",
          "removed": false
        }
      ],
      "logsBloom": "0x00000000000000000000000200000000080000000000000000000000000001000000000000000000000400000000080000400000000000000000000000000001000000000000000000000008000000000000000000000000000000000000400000000000020400000000000100000800000000000008000000000010000000000000000008000000000000000000000000001000000000000000002000000000000000000000000000000000000000000000040000000000000000000000000000000002000000200000000400020000000000002120000000000400000020000000000000000000000000000000000000000001000000000100000000000000",
      "type": "0x2",
      "transactionHash": "0xdaa21dc4c264020f5a8ce267e022345cce02a4798ab82c887bb256c069385d58",
      "transactionIndex": "0x6",
      "blockHash": "0x25f10d3342a763a1f24cfb0f5ae48674dd71ee410fd9f1078c47faa842f6464a",
      "blockNumber": "0xdf",
      "gasUsed": "0x431b8",
      "effectiveGasPrice": "0x8",
      "blobGasPrice": "0x1",
      "from": "0xf39fd6e51aad88f6f4ce6ab8827279cfffb92266",
      "to": "0x9fe46736679d2d9a65f0992f2272de9f3c7fa6e0",
      "contractAddress": null
    },
    {
      "status": "0x1",
      "cumulativeGasUsed": "0x50929e",
      "logs": [
        {
          "address": "0xdc64a140aa3e981100a9beca4e685f962f0cf6c9",
          "topics": [
            "0xddf252ad1be2c89b69c2b068fc378daa952ba7f163c4a11628f55a4df523b3ef",
            "0x000000000000000000000000f39fd6e51aad88f6f4ce6ab8827279cfffb92266",
            "0x000000000000000000000000d5faf37e0592c245215f070b3f5c2cccb202bdae"
          ],
          "data": "0x00000000000000000000000000000000000000000000152d02c7e14af6800000",
          "blockHash": "0x25f10d3342a763a1f24cfb0f5ae48674dd71ee410fd9f1078c47faa842f6464a",
          "blockNumber": "0xdf",
          "blockTimestamp": "0x6880dcac",
          "transactionHash": "0xd947a46ca2de928645a5799c2a29f1af0393917b4be7996a56aa7533e72044b6",
          "transactionIndex": "0x7",
          "logIndex": "0xf",
          "removed": false
        },
        {
          "address": "0x5fc8d32690cc91d4c39d9d3abcbd16989f875707",
          "topics": [
            "0xddf252ad1be2c89b69c2b068fc378daa952ba7f163c4a11628f55a4df523b3ef",
            "0x000000000000000000000000f39fd6e51aad88f6f4ce6ab8827279cfffb92266",
            "0x000000000000000000000000d5faf37e0592c245215f070b3f5c2cccb202bdae"
          ],
          "data": "0x00000000000000000000000000000000000000000000152d02c7e14af6800000",
          "blockHash": "0x25f10d3342a763a1f24cfb0f5ae48674dd71ee410fd9f1078c47faa842f6464a",
          "blockNumber": "0xdf",
          "blockTimestamp": "0x6880dcac",
          "transactionHash": "0xd947a46ca2de928645a5799c2a29f1af0393917b4be7996a56aa7533e72044b6",
          "transactionIndex": "0x7",
          "logIndex": "0x10",
          "removed": false
        },
        {
          "address": "0xd5faf37e0592c245215f070b3f5c2cccb202bdae",
          "topics": [
            "0xddf252ad1be2c89b69c2b068fc378daa952ba7f163c4a11628f55a4df523b3ef",
            "0x0000000000000000000000000000000000000000000000000000000000000000",
            "0x0000000000000000000000000000000000000000000000000000000000000000"
          ],
          "data": "0x00000000000000000000000000000000000000000000000000000000000003e8",
          "blockHash": "0x25f10d3342a763a1f24cfb0f5ae48674dd71ee410fd9f1078c47faa842f6464a",
          "blockNumber": "0xdf",
          "blockTimestamp": "0x6880dcac",
          "transactionHash": "0xd947a46ca2de928645a5799c2a29f1af0393917b4be7996a56aa7533e72044b6",
          "transactionIndex": "0x7",
          "logIndex": "0x11",
          "removed": false
        },
        {
          "address": "0xd5faf37e0592c245215f070b3f5c2cccb202bdae",
          "topics": [
            "0xddf252ad1be2c89b69c2b068fc378daa952ba7f163c4a11628f55a4df523b3ef",
            "0x0000000000000000000000000000000000000000000000000000000000000000",
            "0x000000000000000000000000f39fd6e51aad88f6f4ce6ab8827279cfffb92266"
          ],
          "data": "0x00000000000000000000000000000000000000000000152d02c7e14af67ffc18",
          "blockHash": "0x25f10d3342a763a1f24cfb0f5ae48674dd71ee410fd9f1078c47faa842f6464a",
          "blockNumber": "0xdf",
          "blockTimestamp": "0x6880dcac",
          "transactionHash": "0xd947a46ca2de928645a5799c2a29f1af0393917b4be7996a56aa7533e72044b6",
          "transactionIndex": "0x7",
          "logIndex": "0x12",
          "removed": false
        },
        {
          "address": "0xd5faf37e0592c245215f070b3f5c2cccb202bdae",
          "topics": [
            "0xcf2aa50876cdfbb541206f89af0ee78d44a2abf8d328e37fa4917f982149848a"
          ],
          "data": "0x00000000000000000000000000000000000000000000152d02c7e14af680000000000000000000000000000000000000000000000000152d02c7e14af6800000",
          "blockHash": "0x25f10d3342a763a1f24cfb0f5ae48674dd71ee410fd9f1078c47faa842f6464a",
          "blockNumber": "0xdf",
          "blockTimestamp": "0x6880dcac",
          "transactionHash": "0xd947a46ca2de928645a5799c2a29f1af0393917b4be7996a56aa7533e72044b6",
          "transactionIndex": "0x7",
          "logIndex": "0x13",
          "removed": false
        },
        {
          "address": "0xd5faf37e0592c245215f070b3f5c2cccb202bdae",
          "topics": [
            "0x4c209b5fc8ad50758f13e2e1088ba56a560dff690a1c6fef26394f4c03821c4f",
            "0x0000000000000000000000009fe46736679d2d9a65f0992f2272de9f3c7fa6e0"
          ],
          "data": "0x00000000000000000000000000000000000000000000152d02c7e14af680000000000000000000000000000000000000000000000000152d02c7e14af6800000",
          "blockHash": "0x25f10d3342a763a1f24cfb0f5ae48674dd71ee410fd9f1078c47faa842f6464a",
          "blockNumber": "0xdf",
          "blockTimestamp": "0x6880dcac",
          "transactionHash": "0xd947a46ca2de928645a5799c2a29f1af0393917b4be7996a56aa7533e72044b6",
          "transactionIndex": "0x7",
          "logIndex": "0x14",
          "removed": false
        }
      ],
      "logsBloom": "0x00040800000000000000000000000000080000000000000000000000000001000000000000000000000400000400000000400000000000000000000000000000000000000000000000000008000000000000000240000000000000000000400000000000020400000000000100000800000000000008000008000010000000000000000000000000000000000000000000001000000000000080000000000000000000000000000000000000000000000000000000000000000000000000000000000002000000200000000400020000000000002020000000000001000020000000000000000000000000000000000000000001000000000100000000000000",
      "type": "0x2",
      "transactionHash": "0xd947a46ca2de928645a5799c2a29f1af0393917b4be7996a56aa7533e72044b6",
      "transactionIndex": "0x7",
      "blockHash": "0x25f10d3342a763a1f24cfb0f5ae48674dd71ee410fd9f1078c47faa842f6464a",
      "blockNumber": "0xdf",
      "gasUsed": "0x439a7",
      "effectiveGasPrice": "0x8",
      "blobGasPrice": "0x1",
      "from": "0xf39fd6e51aad88f6f4ce6ab8827279cfffb92266",
      "to": "0x9fe46736679d2d9a65f0992f2272de9f3c7fa6e0",
      "contractAddress": null
    },
    {
      "status": "0x1",
      "cumulativeGasUsed": "0x54cc51",
      "logs": [
        {
          "address": "0xcf7ed3acca5a467e9e704c703e8d87f634fb0fc9",
          "topics": [
            "0xddf252ad1be2c89b69c2b068fc378daa952ba7f163c4a11628f55a4df523b3ef",
            "0x000000000000000000000000f39fd6e51aad88f6f4ce6ab8827279cfffb92266",
            "0x000000000000000000000000c08645866727712490aa8c1848372d869127028c"
          ],
          "data": "0x00000000000000000000000000000000000000000000152d02c7e14af6800000",
          "blockHash": "0x25f10d3342a763a1f24cfb0f5ae48674dd71ee410fd9f1078c47faa842f6464a",
          "blockNumber": "0xdf",
          "blockTimestamp": "0x6880dcac",
          "transactionHash": "0x2ff51cde19a7d718b4d895699f80c03916e4ab44618cc9459bd6a05982525ca9",
          "transactionIndex": "0x8",
          "logIndex": "0x15",
          "removed": false
        },
        {
          "address": "0x5fc8d32690cc91d4c39d9d3abcbd16989f875707",
          "topics": [
            "0xddf252ad1be2c89b69c2b068fc378daa952ba7f163c4a11628f55a4df523b3ef",
            "0x000000000000000000000000f39fd6e51aad88f6f4ce6ab8827279cfffb92266",
            "0x000000000000000000000000c08645866727712490aa8c1848372d869127028c"
          ],
          "data": "0x00000000000000000000000000000000000000000000152d02c7e14af6800000",
          "blockHash": "0x25f10d3342a763a1f24cfb0f5ae48674dd71ee410fd9f1078c47faa842f6464a",
          "blockNumber": "0xdf",
          "blockTimestamp": "0x6880dcac",
          "transactionHash": "0x2ff51cde19a7d718b4d895699f80c03916e4ab44618cc9459bd6a05982525ca9",
          "transactionIndex": "0x8",
          "logIndex": "0x16",
          "removed": false
        },
        {
          "address": "0xc08645866727712490aa8c1848372d869127028c",
          "topics": [
            "0xddf252ad1be2c89b69c2b068fc378daa952ba7f163c4a11628f55a4df523b3ef",
            "0x0000000000000000000000000000000000000000000000000000000000000000",
            "0x0000000000000000000000000000000000000000000000000000000000000000"
          ],
          "data": "0x00000000000000000000000000000000000000000000000000000000000003e8",
          "blockHash": "0x25f10d3342a763a1f24cfb0f5ae48674dd71ee410fd9f1078c47faa842f6464a",
          "blockNumber": "0xdf",
          "blockTimestamp": "0x6880dcac",
          "transactionHash": "0x2ff51cde19a7d718b4d895699f80c03916e4ab44618cc9459bd6a05982525ca9",
          "transactionIndex": "0x8",
          "logIndex": "0x17",
          "removed": false
        },
        {
          "address": "0xc08645866727712490aa8c1848372d869127028c",
          "topics": [
            "0xddf252ad1be2c89b69c2b068fc378daa952ba7f163c4a11628f55a4df523b3ef",
            "0x0000000000000000000000000000000000000000000000000000000000000000",
            "0x000000000000000000000000f39fd6e51aad88f6f4ce6ab8827279cfffb92266"
          ],
          "data": "0x00000000000000000000000000000000000000000000152d02c7e14af67ffc18",
          "blockHash": "0x25f10d3342a763a1f24cfb0f5ae48674dd71ee410fd9f1078c47faa842f6464a",
          "blockNumber": "0xdf",
          "blockTimestamp": "0x6880dcac",
          "transactionHash": "0x2ff51cde19a7d718b4d895699f80c03916e4ab44618cc9459bd6a05982525ca9",
          "transactionIndex": "0x8",
          "logIndex": "0x18",
          "removed": false
        },
        {
          "address": "0xc08645866727712490aa8c1848372d869127028c",
          "topics": [
            "0xcf2aa50876cdfbb541206f89af0ee78d44a2abf8d328e37fa4917f982149848a"
          ],
          "data": "0x00000000000000000000000000000000000000000000152d02c7e14af680000000000000000000000000000000000000000000000000152d02c7e14af6800000",
          "blockHash": "0x25f10d3342a763a1f24cfb0f5ae48674dd71ee410fd9f1078c47faa842f6464a",
          "blockNumber": "0xdf",
          "blockTimestamp": "0x6880dcac",
          "transactionHash": "0x2ff51cde19a7d718b4d895699f80c03916e4ab44618cc9459bd6a05982525ca9",
          "transactionIndex": "0x8",
          "logIndex": "0x19",
          "removed": false
        },
        {
          "address": "0xc08645866727712490aa8c1848372d869127028c",
          "topics": [
            "0x4c209b5fc8ad50758f13e2e1088ba56a560dff690a1c6fef26394f4c03821c4f",
            "0x0000000000000000000000009fe46736679d2d9a65f0992f2272de9f3c7fa6e0"
          ],
          "data": "0x00000000000000000000000000000000000000000000152d02c7e14af680000000000000000000000000000000000000000000000000152d02c7e14af6800000",
          "blockHash": "0x25f10d3342a763a1f24cfb0f5ae48674dd71ee410fd9f1078c47faa842f6464a",
          "blockNumber": "0xdf",
          "blockTimestamp": "0x6880dcac",
          "transactionHash": "0x2ff51cde19a7d718b4d895699f80c03916e4ab44618cc9459bd6a05982525ca9",
          "transactionIndex": "0x8",
          "logIndex": "0x1a",
          "removed": false
        }
      ],
      "logsBloom": "0x00000000000000000000000000000000000000000000000000000000000001000000000000000000000400000000080000400000000000000000000000000001000000000000000000000008000000000000000240000000000000000000400000000004020400000000000100000800000000000008400000000010000000000000000008000000000000000000000100001000000000000000000000000000000000000000000000000000200000000000000000000000000000000000000000000002000000200000000400020020000000002000000000040001000020000000000000000000000000000000000000000000000000000000000000000000",
      "type": "0x2",
      "transactionHash": "0x2ff51cde19a7d718b4d895699f80c03916e4ab44618cc9459bd6a05982525ca9",
      "transactionIndex": "0x8",
      "blockHash": "0x25f10d3342a763a1f24cfb0f5ae48674dd71ee410fd9f1078c47faa842f6464a",
      "blockNumber": "0xdf",
      "gasUsed": "0x439b3",
      "effectiveGasPrice": "0x8",
      "blobGasPrice": "0x1",
      "from": "0xf39fd6e51aad88f6f4ce6ab8827279cfffb92266",
      "to": "0x9fe46736679d2d9a65f0992f2272de9f3c7fa6e0",
      "contractAddress": null
    }
  ],
  "libraries": [],
  "pending": [],
  "returns": {},
  "timestamp": 1753275565,
  "chain": 31337,
  "commit": null
}