{
  "transactions": [
    {
      "hash": "0x2a79d8fdecc087a0c6bcdce2fcf7e5c336829a354f9f561233521e39ab990108",
      "transactionType": "CALL",
      "contractName": null,
      "contractAddress": "0x9fe46736679d2d9a65f0992f2272de9f3c7fa6e0",
      "function": "createToken(string,string,uint8,uint256,address)",
      "arguments": [
        "Test Custom Token",
        "TCT",
        "18",
        "1000000000000000000000000",
        "0x1804c8AB1F12E6bbf3894d4083f33e07309d1f38"
      ],
      "transaction": {
        "from": "0xf39fd6e51aad88f6f4ce6ab8827279cfffb92266",
        "to": "0x9fe46736679d2d9a65f0992f2272de9f3c7fa6e0",
        "gas": "0x10dd73",
        "value": "0x0",
        "input": "0x5165749e00000000000000000000000000000000000000000000000000000000000000a000000000000000000000000000000000000000000000000000000000000000e0000000000000000000000000000000000000000000000000000000000000001200000000000000000000000000000000000000000000d3c21bcecceda10000000000000000000000000000001804c8ab1f12e6bbf3894d4083f33e07309d1f3800000000000000000000000000000000000000000000000000000000000000115465737420437573746f6d20546f6b656e00000000000000000000000000000000000000000000000000000000000000000000000000000000000000000000035443540000000000000000000000000000000000000000000000000000000000",
        "nonce": "0x17",
        "chainId": "0x7a69"
      },
      "additionalContracts": [
        {
          "transactionType": "CREATE",
          "address": "0xe451980132e65465d0a498c53f0b5227326dd73f",
          "initCode": "0x60806040523461037557610b0c8038038061001981610379565b9283398101906080818303126103755780516001600160401b038111610375578261004591830161039e565b602082015190926001600160401b0382116103755761006591830161039e565b9060408101519060ff8216809203610375576060015183519091906001600160401b038111610289575f54600181811c9116801561036b575b602082101461026b57601f8111610309575b50602094601f82116001146102a8579481929394955f9261029d575b50508160011b915f199060031b1c1916175f555b82516001600160401b03811161028957600154600181811c9116801561027f575b602082101461026b57601f8111610208575b506020601f82116001146101a557819293945f9261019a575b50508160011b915f199060031b1c1916176001555b60ff19600254161760025580600355335f5260046020528060405f20556040519081525f7fddf252ad1be2c89b69c2b068fc378daa952ba7f163c4a11628f55a4df523b3ef60203393a360405161071c90816103f08239f35b015190505f8061012c565b601f1982169060015f52805f20915f5b8181106101f0575095836001959697106101d8575b505050811b01600155610141565b01515f1960f88460031b161c191690555f80806101ca565b9192602060018192868b0151815501940192016101b5565b60015f527fb10e2d527612073b26eecdfd717e6a320cf44b4afac2b0732d9fcbe2b7fa0cf6601f830160051c81019160208410610261575b601f0160051c01905b8181106102565750610113565b5f8155600101610249565b9091508190610240565b634e487b7160e01b5f52602260045260245ffd5b90607f1690610101565b634e487b7160e01b5f52604160045260245ffd5b015190505f806100cc565b601f198216955f8052805f20915f5b8881106102f1575083600195969798106102d9575b505050811b015f556100e0565b01515f1960f88460031b161c191690555f80806102cc565b919260206001819286850151815501940192016102b7565b5f80527f290decd9548b62a8d60345a988386fc84ba6bc95484008f6362f93160ef3e563601f830160051c81019160208410610361575b601f0160051c01905b81811061035657506100b0565b5f8155600101610349565b9091508190610340565b90607f169061009e565b5f80fd5b6040519190601f01601f191682016001600160401b0381118382101761028957604052565b81601f82011215610375578051906001600160401b038211610289576103cd601f8301601f1916602001610379565b928284526020838301011161037557815f9260208093018386015e830101529056fe60806040526004361015610011575f80fd5b5f3560e01c806306fdde0314610544578063095ea7b3146104cb57806318160ddd146104ae57806323b872dd14610372578063313ce5671461035257806340c10f19146102d857806370a08231146102a057806395d89b4114610182578063a9059cbb146100db5763dd62ed3e14610087575f80fd5b346100d75760403660031901126100d7576100a0610640565b6100a8610656565b6001600160a01b039182165f908152600560209081526040808320949093168252928352819020549051908152f35b5f80fd5b346100d75760403660031901126100d7576100f4610640565b60243590335f5260046020526101108260405f2054101561066c565b335f52600460205260405f206101278382546106b8565b905560018060a01b031690815f52600460205260405f206101498282546106d9565b90556040519081527fddf252ad1be2c89b69c2b068fc378daa952ba7f163c4a11628f55a4df523b3ef60203392a3602060405160018152f35b346100d7575f3660031901126100d7576040515f6001548060011c90600181168015610296575b602083108114610282578285529081156102665750600114610210575b50819003601f01601f191681019067ffffffffffffffff8211818310176101fc57604082905281906101f89082610616565b0390f35b634e487b7160e01b5f52604160045260245ffd5b60015f9081529091507fb10e2d527612073b26eecdfd717e6a320cf44b4afac2b0732d9fcbe2b7fa0cf65b828210610250575060209150820101826101c6565b600181602092548385880101520191019061023b565b90506020925060ff191682840152151560051b820101826101c6565b634e487b7160e01b5f52602260045260245ffd5b91607f16916101a9565b346100d75760203660031901126100d7576001600160a01b036102c1610640565b165f526004602052602060405f2054604051908152f35b346100d75760403660031901126100d7576102f1610640565b5f7fddf252ad1be2c89b69c2b068fc378daa952ba7f163c4a11628f55a4df523b3ef602060243593610325856003546106d9565b60035560018060a01b03169384845260048252604084206103478282546106d9565b9055604051908152a3005b346100d7575f3660031901126100d757602060ff60025416604051908152f35b346100d75760603660031901126100d75761038b610640565b610393610656565b6044359160018060a01b031690815f5260046020526103b88360405f2054101561066c565b5f82815260056020908152604080832033845290915290205483116104695760207fddf252ad1be2c89b69c2b068fc378daa952ba7f163c4a11628f55a4df523b3ef91835f526004825260405f206104118682546106b8565b905560018060a01b031693845f526004825260405f206104328282546106d9565b90555f8481526005835260408082203383528452902080546104559083906106b8565b9055604051908152a3602060405160018152f35b60405162461bcd60e51b815260206004820152601d60248201527f45524332303a20696e73756666696369656e7420616c6c6f77616e63650000006044820152606490fd5b346100d7575f3660031901126100d7576020600354604051908152f35b346100d75760403660031901126100d7576104e4610640565b335f8181526005602090815260408083206001600160a01b03909516808452948252918290206024359081905591519182527f8c5be1e5ebec7d5bd14f71427d1e84f3dd0314c0f7b2291e5b200ac8c7c3b92591a3602060405160018152f35b346100d7575f3660031901126100d7576040515f5f548060011c9060018116801561060c575b6020831081146102825782855290811561026657506001146105b85750819003601f01601f191681019067ffffffffffffffff8211818310176101fc57604082905281906101f89082610616565b5f8080529091507f290decd9548b62a8d60345a988386fc84ba6bc95484008f6362f93160ef3e5635b8282106105f6575060209150820101826101c6565b60018160209254838588010152019101906105e1565b91607f169161056a565b602060409281835280519182918282860152018484015e5f828201840152601f01601f1916010190565b600435906001600160a01b03821682036100d757565b602435906001600160a01b03821682036100d757565b1561067357565b60405162461bcd60e51b815260206004820152601b60248201527f45524332303a20696e73756666696369656e742062616c616e636500000000006044820152606490fd5b919082039182116106c557565b634e487b7160e01b5f52601160045260245ffd5b919082018092116106c55756fea2646970667358221220718a15a7acd4d4097dd9ac711837a90d7951a67afd794da71dc749de0778cbde64736f6c634300081b0033000000000000000000000000000000000000000000000000000000000000008000000000000000000000000000000000000000000000000000000000000000c0000000000000000000000000000000000000000000000000000000000000001200000000000000000000000000000000000000000000d3c21bcecceda100000000000000000000000000000000000000000000000000000000000000000000115465737420437573746f6d20546f6b656e00000000000000000000000000000000000000000000000000000000000000000000000000000000000000000000035443540000000000000000000000000000000000000000000000000000000000"
        }
      ],
      "isFixedGasLimit": false
    }
  ],
  "receipts": [
    {
      "status": "0x1",
      "cumulativeGasUsed": "0xb881b",
      "logs": [
        {
          "address": "0xe451980132e65465d0a498c53f0b5227326dd73f",
          "topics": [
            "0xddf252ad1be2c89b69c2b068fc378daa952ba7f163c4a11628f55a4df523b3ef",
            "0x0000000000000000000000000000000000000000000000000000000000000000",
            "0x0000000000000000000000009fe46736679d2d9a65f0992f2272de9f3c7fa6e0"
          ],
          "data": "0x00000000000000000000000000000000000000000000d3c21bcecceda1000000",
          "blockHash": "0xeecff8444fad656eaa31f4fa6cf5c45836bb4f62ee3bd9bd57da3ad636b46790",
          "blockNumber": "0x14",
          "blockTimestamp": "0x68829720",
          "transactionHash": "0x2a79d8fdecc087a0c6bcdce2fcf7e5c336829a354f9f561233521e39ab990108",
          "transactionIndex": "0x0",
          "logIndex": "0x0",
          "removed": false
        },
        {
          "address": "0xe451980132e65465d0a498c53f0b5227326dd73f",
          "topics": [
            "0xddf252ad1be2c89b69c2b068fc378daa952ba7f163c4a11628f55a4df523b3ef",
            "0x0000000000000000000000009fe46736679d2d9a65f0992f2272de9f3c7fa6e0",
            "0x0000000000000000000000001804c8ab1f12e6bbf3894d4083f33e07309d1f38"
          ],
          "data": "0x00000000000000000000000000000000000000000000d3c21bcecceda1000000",
          "blockHash": "0xeecff8444fad656eaa31f4fa6cf5c45836bb4f62ee3bd9bd57da3ad636b46790",
          "blockNumber": "0x14",
          "blockTimestamp": "0x68829720",
          "transactionHash": "0x2a79d8fdecc087a0c6bcdce2fcf7e5c336829a354f9f561233521e39ab990108",
          "transactionIndex": "0x0",
          "logIndex": "0x1",
          "removed": false
        },
        {
          "address": "0x9fe46736679d2d9a65f0992f2272de9f3c7fa6e0",
          "topics": [
            "0x6aba688e0d9fb13e49808a9f69e09384142cd46853e4ecfcf79aa7e4d63c1832",
            "0x000000000000000000000000e451980132e65465d0a498c53f0b5227326dd73f",
            "0x000000000000000000000000f39fd6e51aad88f6f4ce6ab8827279cfffb92266"
          ],
          "data": "0x000000000000000000000000000000000000000000000000000000000000008000000000000000000000000000000000000000000000000000000000000000c0000000000000000000000000000000000000000000000000000000000000001200000000000000000000000000000000000000000000d3c21bcecceda100000000000000000000000000000000000000000000000000000000000000000000115465737420437573746f6d20546f6b656e00000000000000000000000000000000000000000000000000000000000000000000000000000000000000000000035443540000000000000000000000000000000000000000000000000000000000",
          "blockHash": "0xeecff8444fad656eaa31f4fa6cf5c45836bb4f62ee3bd9bd57da3ad636b46790",
          "blockNumber": "0x14",
          "blockTimestamp": "0x68829720",
          "transactionHash": "0x2a79d8fdecc087a0c6bcdce2fcf7e5c336829a354f9f561233521e39ab990108",
          "transactionIndex": "0x0",
          "logIndex": "0x2",
          "removed": false
        }
      ],
      "logsBloom": "0x00000000000000000000000000000000000000000000000000000000000000000000000000000000100400000000000000400020000040200040000000000000000000000000000000000008000000000000000000000000000000000000400000000800020000000001000100000c00000000000000000000000010000020000000000000000000000004000000000000000000000000000000000000000000000000000000000000200000000000000000000000000000000000000000000000000002000004200000000000000000000000002400000000000000000020000000000000000000000010000000000000000000000000400000000000000000",
      "type": "0x2",
      "transactionHash": "0x2a79d8fdecc087a0c6bcdce2fcf7e5c336829a354f9f561233521e39ab990108",
      "transactionIndex": "0x0",
      "blockHash": "0xeecff8444fad656eaa31f4fa6cf5c45836bb4f62ee3bd9bd57da3ad636b46790",
      "blockNumber": "0x14",
      "gasUsed": "0xb881b",
      "effectiveGasPrice": "0x4a410467",
      "blobGasPrice": "0x1",
      "from": "0xf39fd6e51aad88f6f4ce6ab8827279cfffb92266",
      "to": "0x9fe46736679d2d9a65f0992f2272de9f3c7fa6e0",
      "contractAddress": null
    }
  ],
  "libraries": [],
  "pending": [],
  "returns": {},
  "timestamp": 1753388832,
  "chain": 31337,
  "commit": "7401822"
}